:1000000000000320D1010000B1350000B53400002C
:10001000B5340000B5340000B5340000B53400003C
:10002000B5340000B5340000B5340000B13500002F
:10003000B1350000B5340000D13F0000C13F0000E1
:10004000B1350000B1350000B1350000B135000018
:10005000B1350000B1350000B1350000B135000008
:10006000B1350000B1350000B1350000B1350000F8
:10007000B1350000B1350000B1350000B1350000E8
:10008000B1350000B1350000B1350000B1350000D8
:10009000B1350000B1350000B1350000B1350000C8
:1000A00005070000CD050000B1350000B1350000A6
:1000B000B1350000B1350000B13500004524000025
:1000C000B13500006D230000B1350000D1220000E1
:1000D000B135000035220000B1350000B135000017
:1000E000B1350000B1350000B1350000B135000078
:1000F000B1350000B1350000B1350000B135000068
:100100000D3F0000F93E0000E53E0000D13E00003A
:10011000B135000079290000B1350000B13500008B
:10012000B1350000B1350000B1350000B135000037
:10013000B1350000B1350000B1350000B135000027
:10014000B1350000B135000099210000B135000043
:10015000B1350000B1350000B1350000B135000007
:10016000B1350000B135000095040000B135000044
:10017000B1350000B1350000B1350000B1350000E7
:10018000B1350000B1350000B1350000B1350000D7
:10019000B1350000B1350000F5200000B135000098
:1001A000B1350000B1350000B1350000B1350000B7
:1001B000B1350000B1350000B1350000B1350000A7
:1001C000B1350000B1350000B1350000B135000097
:1001D00008B5624B4CF220521A804DF628121A8054
:1001E00000BF00BF102223F80E2CA3F51F43DE3BF7
:1001F0004FF030621A605A4A9A605A4ADA605A4B93
:100200004FF470021A60594B594A1A60594B1A78C8
:10021000120703D51A7842F008021A70564B574954
:10022000AA221A70564A574B8B4204D252F8040F36
:1002300043F8040BF8E7544B544900228B4202D296
:1002400043F8042BFAE75249524A002352F823009C
:1002500041F823000133742BF8D14F4B4F4A8021D2
:1002600003F8011B9342FBD14D4B494A1A604D4B99
:100270008A221A70A3F5805324225A70A0221A7081
:100280009A799507FCD59A79D406FCD4464A937995
:1002900003F00C03082BFAD1444B60221A7002338E
:1002A0001A78802AFCD1404B01221A715D225A71C2
:1002B0009A799006FCD599793B4A4906FBD53C4B87
:1002C0003C4919600021596020231370937903F091
:1002D0000C030C2BFAD1384B384A1A60384A394C87
:1002E000136813F4807303D123604FF4A853136091
:1002F000354B364A1A60002507225D6043F8042C0E
:10030000334AC3F80C2D62B603F0A6F922682D4BD0
:10031000D2070CD52F4A30491D60156042F8041CE5
:1003200010221A6003F5805308332C4A1A602C4BB4
:100330001B785B060ED52B4A284B1168994209D1D0
:1003400024492548002323600B6041F8040C102148
:100350002160136004F09EFA04F008F80E200540B6
:10036000823F04000100002B88ED00E0002008E03F
:100370000300008502D0074000E007406C0DFF1F1E
:100380009C4F00003007FF1F6C0DFF1F941AFF1FCA
:100390000002FF1F0000000000E400E064E400E051
:1003A00008ED00E0005006400040064001E0074034
:1003B000448004400000060204800440C01007008E
:1003C00010D0034014D0034014E000E01FBF02002F
:1003D0000000202004D0034010F20C62A5C3945A00
:1003E00000F007401CE00340FFFFFFFFFFFFFFFF9F
:1003F000FFFFFFFFFFFFFFFFFFFFFFFFFFFFFFFF0D
:10040000FFFFFFFFFFFFFFFFFFFFFFFFDEF9FFFF23
:1004100010B5054C237833B9044B13B10448AFF33E
:1004200000800123237010BD6C0DFF1F0000000031
:10043000984F0000084B10B51BB108490848AFF3AE
:1004400000800848036803B910BD074B002BFBD0A0
:10045000BDE81040184700BF00000000700DFF1FEE
:10046000984F00006C0DFF1F00000000B0F85E30D8
:100470006BB190F85D30202B07D8C218013380F89B
:100480005D30012082F83B1070470123037100208A
:10049000704700BF38B54B4D2A69D478E4B2E10605
:1004A00025D51023D370630620D504F0040404F08E
:1004B000FF03002C5DD044496A6E424C00230B7050
:1004C00085F85D30002A68D0904794F85D30002BA5
:1004D00063D02B69D0229A702B6995F83B201A7152
:1004E0002B69012285F85C200222DA7038BD04F005
:1004F000400303F0FF00002BD7D19379DBB203F068
:100500006001602950D0937803F0100303F0FF01DD
:10051000BBB114F0010439D195F85C3095F85D0059
:10052000284998424CD9C818013390F83B0081F80B
:100530005C3010712B69D0229A702B690222DA701C
:10054000D4E785F8601093791E4843F02003937137
:100550002B6995F839101A791F29D2B2C4D81A4CD0
:100560002478002CC0D044180131227680F839104C
:10057000BAE72A6985F83930C02393702B69124A8B
:100580001979012111700222DA70AFE7C02393704C
:100590002B691A790222DA70A8E70122002385F874
:1005A0005D2085F83B3094E703F0DF039371AB6E79
:1005B00023B185F8380095F8390098472A69A2E7F1
:1005C0001471B7E73407FF1F880DFF1F38B54B4D77
:1005D0002A69D478E4B2E10625D51023D3706306E6
:1005E00020D504F0040404F0FF03002C5DD044493E
:1005F0006A6E424C00230B7085F85D30002A68D08B
:10060000904794F85D30002B63D02B69D0229A700C
:100610002B6995F83B201A712B69012285F85C2023
:100620000222DA7038BD04F0400303F0FF00002B13
:10063000D7D19379DBB203F06001602950D0937871
:1006400003F0100303F0FF01BBB114F0010439D132
:1006500095F85C3095F85D00284998424CD9C81847
:10066000013390F83B0081F85C3010712B69D02287
:100670009A702B690222DA70D4E785F860109379BA
:100680001E4843F0200393712B6995F839101A79AD
:100690001F29D2B2C4D81A4C2478002CC0D04418D8
:1006A0000131227680F83910BAE72A6985F83930A5
:1006B000C02393702B69124A19790121117002220B
:1006C000DA70AFE7C02393702B691A790222DA70CF
:1006D000A8E70122002385F85D2085F83B3094E7E8
:1006E00003F0DF039371AB6E23B185F8380095F802
:1006F000390098472A69A2E71471B7E7BC08FF1FC1
:10070000880DFF1F38B54B4D2A69D478E4B2E10655
:1007100025D51023D370630620D504F0040404F01B
:10072000FF03002C5DD044496A6E424C00230B70DD
:1007300085F85D30002A68D0904794F85D30002B32
:1007400063D02B69D0229A702B6995F83B201A71DF
:100750002B69012285F85C200222DA7038BD04F092
:10076000400303F0FF00002BD7D19379DBB203F0F5
:100770006001602950D0937803F0100303F0FF016B
:10078000BBB114F0010439D195F85C3095F85D00E7
:10079000284998424CD9C818013390F83B0081F899
:1007A0005C3010712B69D0229A702B690222DA70AA
:1007B000D4E785F8601093791E4843F020039371C5
:1007C0002B6995F839101A791F29D2B2C4D81A4C5E
:1007D0002478002CC0D044180131227680F83910DA
:1007E000BAE72A6985F83930C02393702B69124A19
:1007F0001979012111700222DA70AFE7C0239370DA
:100800002B691A790222DA70A8E70122002385F801
:100810005D2085F83B3094E703F0DF039371AB6E06
:1008200023B185F8380095F8390098472A69A2E77E
:100830001471B7E74C08FF1F880DFF1F704700BFFA
:1008400090F8383090F839209A4286BF1B18187EED
:100850004FF0FF30704700BF90F8383090F83920E3
:100860009A4205D95A1C034480F83820187E7047F4
:100870004FF0FF30704700BF90F8392090F83800F3
:10088000101A70470020704738B50546B0F85E0072
:1008900090B195F85D301446C3F1210294420CD812
:1008A00005F13B001844224604F0E0F895F85D306D
:1008B000234485F85D30204638BD01201446287158
:1008C000EEE700BF2DE9F04F464C2DED068B0123DE
:1008D00084F85E30B4F85E2084F85D303023D3B005
:1008E00084F83B302AB10222082384F85D2084F882
:1008F0003C303C4801F012FE4FF41673013BFDD131
:1009000094F8383094F839209A424FF0000103F1FE
:10091000010308D040F2C681DBB29A424FF00101D8
:1009200003F10103F6D1002940F0B18601F07AFE0F
:10093000042800F039852C4B01935B680293012356
:1009400084F85E30B4F85E1084F85D303023254AB8
:1009500084F83B3029B10221072382F85D1082F828
:100960003C30204801F0DAFD4FF41673013BFDD115
:1009700094F8383094F839209A424FF0000103F18E
:10098000010308D040F28F81DBB29A424FF001019F
:1009900003F10103F6D1002940F07D8601F042FE0B
:1009A000042800F0E084019B9B680393019B1B7B60
:1009B000002B40F093810D4B93F86C20012A04AD7D
:1009C0000EAC0DF13A0600F0CD82C0F02985022A66
:1009D00040F06A81064BDDED027A03F57471B8EEE2
:1009E000E77A0CE04C08FF1F880DFF1F3407FF1F3C
:1009F000C80DFF1F994202F1010200F01E86D3EDDF
:100A00000D7AF4EEC77AF1EE10FA03F11003F1DD7E
:100A1000019B03EB021292ED116AD2ED126AD2ED44
:100A2000137A37EE467AE7EE267AFDEEE77A17EE8E
:100A3000903A002BC0F222866FF07F429342A8BF0B
:100A40001346019A2B60977D87F0EB0383EA03132B
:100A5000DAB2D30083EA022383F0C50383EA1213D8
:100A60001BB283F0010181EA0111C9B2C800C3F3CE
:100A7000072280EA0123534083EA11131BB283F05B
:100A8000010181EA0111C9B2C800C3F3072280EA5B
:100A90000123029868600398A860534083EA111309
:100AA00095E807001BB283F0990E0DF1400C8EEA19
:100AB0000E1E8CE807005FFA8EFE4FEACE01C3F3EC
:100AC000072281EA0E23534094F808C0A07AE17A05
:100AD000277183EA1E131BB28CEA030C8CEA0C1CF0
:100AE0005FFA8CFC4FEACC09C3F3072289EA0C2396
:100AF000534094F809E094F80C9083EA1C131BB25D
:100B00008EEA030E8EEA0E1E5FFA8EFE4FEACE0CC0
:100B1000C3F307228CEA0E23534083EA1E131BB251
:100B2000584080EA0010C0B24FEAC00EC3F307225B
:100B30008EEA0023534083EA10131BB2594081EA26
:100B40000111C9B2C800C3F3072280EA0123534050
:100B500083EA11131BB289EA030989EA09195FFACA
:100B600089F9C3F307224FEAC90383EA09235340F3
:100B700094F80DC094F80EE0E07B217C83EA191311
:100B80001BB28CEA030C8CEA0C1C5FFA8CFC4FEA5B
:100B9000CC09C3F3072289EA0C23534083EA1C13D0
:100BA0001BB28EEA030E8EEA0E1E5FFA8EFE4FEA2D
:100BB000CE0CC3F307228CEA0E23534083EA1E13A4
:100BC0001BB2584080EA0010C0B24FEAC00EC3F317
:100BD00007228EEA0023534083EA10131BB25940C8
:100BE00081EA0111C9B2C800C3F3072280EA0123D8
:100BF000534094F811E0A07C83EA11131BB28EEAF3
:100C0000030E8EEA0E1E5FFA8EFE4FEACE0CC3F381
:100C100007228CEA0E23534083EA1E131BB258406E
:100C200080EA0010C0B24FEAC00EC3F307228EEA7A
:100C300000235340E17C83EA10131BB2594081EA40
:100C40000111C9B2C800C3F3072280EA012353404F
:100C500083EA11131BB283F0D70181EA0111C9B2F3
:100C6000C800C3F3072280EA0123534083EA11132B
:100C7000019A1BB201371FFA83F997754FEA192AB7
:100C800001224FF0990EFE200C211227237584F8C3
:100C900015A084F807E0A070E1706271A2713A4675
:100CA000142409E0FEE7FEE7E278B4F8009006328B
:100CB00017464FEA192A00243146284603F0D6FE8B
:100CC000EB1905F807902146284683F801A003F0A8
:100CD000D1F953B0BDEC068BBDE8F08FA64BA74F02
:100CE000D3ED099AA64DDFF8CC82DFF8CCB2DFF85D
:100CF000CC920226B2463B78002B40F0658272B659
:100D0000A04C1126012326602B7062B672B62368B0
:100D10001A060DD49A4B1B781BB9F3E72B78002BDE
:100D2000F0D062B603F070F972B623681B06F5D5F1
:100D3000954B00221B682A7062B698F80020134178
:100D400007EE903A0AF1FF33F8EEE77A13F0FF0A64
:100D500038EE278ACFD1884B9FED8C5A1B78DFED78
:100D60008C5A9FED8C6ADFED8C6A8C4DDFF848B2AF
:100D7000DFF8489209EE103A7F4BF6EE007A5B7886
:100D800068EE277A0AEE103AB8EE497A67EE857A6D
:100D900027EE259AB8EE4A7A27EE868A764B022607
:100DA00029EE269A27EE26AA83ED0B8AB2463B78D7
:100DB000002B40F0738272B6794E7A4C3368774AD2
:100DC00043F01003336001210E232360297062B6C3
:100DD00072B6236819060CD413781BB9EEE72B788A
:100DE000002BEBD062B603F00FF972B623681B0636
:100DF000F5D56D4B00221B682A7062B698F800206A
:100E0000134107EE903A0AF1FF33F8EEE77A13F058
:100E1000FF0A78EEA78ACAD1019BDFED5C7A93F8CE
:100E200016C0DFED5C6ACDED049A8CF0220383EAF4
:100E30000313DAB2D30083EA022383F0590383EA6F
:100E400012131BB283F0010181EA0111C9B2C8007B
:100E5000C3F3072280EA01235340B6EE007A83EA07
:100E6000111368EE878A1BB283F0010468EEA77A3B
:100E700084EA0416F6B267EEA67A04ADF400C3F372
:100E8000072384EA0624C5ED047A85ED018A85ED01
:100E9000029A85ED03AAAE465C40BEE80F0084EAE4
:100EA000161424B284F0AB0686EA061610AF0FC7FC
:100EB000F6B24FEAC609C4F3072489EA0623634061
:100EC00083EA1616DEF800303B600EAC2A4A019F1A
:100ED000C2ED0C7AFE2001230CF101094FF0AB0E9C
:100EE0001421A07010AA268084F804C087F81690F8
:100EF00084F807E0E1706371A37115A812F8013B53
:100F0000734083EA0313DBB2D90081EA032181EA4B
:100F1000162181EA13131BB29EB282422680EDD1C4
:100F200083F0730383EA0313DBB2DA0082EA03225D
:100F300082EA162686EA13130DF13A061FB21A2228
:100F40003146284603F092FDC7F30723EB761C21B8
:100F50002846AF7603F08EF8144B93F86C20012AE4
:100F60007FF433AD124BDDED027A03F57471B8EE08
:100F7000E77A022229E000BFC819FF1F091AFF1FE4
:100F8000901AFF1F00B0034010B0034033335340AA
:100F9000C3F59A41000000390000803B911AFF1F01
:100FA0000CB00B4000B00B4010B00B403407FF1FDB
:100FB000C80DFF1F081AFF1F24B0034024B00B40C8
:100FC000994202F1010200F04983D3ED0D7AF4EE6B
:100FD000C77AF1EE10FA03F11003F1DD019B03EB88
:100FE000021292ED116AD2ED126AD2ED137A37EE47
:100FF000467AE7EE267AFDEEE77A17EE903A002B76
:10100000C0F23F836FF07F429342A8BF1346019A1C
:101010002B60927D82F0CF0383EA0313D9B20B02D7
:1010200083EAC10383F0830383EA11131BB283F0C5
:10103000010080EA0010C0B2C700C3F3072187EAAD
:1010400000234B4083EA10131BB283F0010080EAB7
:101050000010C0B2C700C3F3072187EA00234B404A
:1010600083EA1013039868601BB295E8030083F0CD
:10107000980787EA0717FFB20DF1400C8CE80300D0
:101080004FEAC70EC3F307218EEA07234B4083EADA
:10109000171394F808E0677AA07A22711BB28EEADF
:1010A000030E8EEA0E1E5FFA8EFE4FEA0E2CC3F37D
:1010B00007218CEACE034B4083EA1E131BB25F402C
:1010C00087EA0717FFB24FEA072EC3F307218EEA1C
:1010D000C7034B4083EA17131BB2584080EA001045
:1010E000C0B20702C3F3072187EAC0034B4083EA7B
:1010F000101394F80BC094F80CE0677BA07B1BB234
:101100008CEA030C8CEA0C1C5FFA8CFCC3F30721FD
:101110004FEA0C2383EACC034B4083EA1C131BB237
:101120008EEA030E8EEA0E1E5FFA8EFE4FEA0E2C3A
:10113000C3F307218CEACE034B4083EA1E131BB294
:101140005F4087EA0717FFB24FEA072EC3F3072174
:101150008EEAC7034B4083EA17131BB2584080EA5C
:101160000010C0B20702C3F3072187EAC0034B4057
:1011700083EA1013E07B1BB2584080EA0010C0B233
:10118000C700C3F3072187EA00234B4083EA10130B
:101190001BB283F0250080EA0010C0B2C700C3F381
:1011A000072187EA00234B4083EA10131BB21FFA82
:1011B00083F901324FEA192A4FF0980E08E2D9F864
:1011C000003013F0800308D0DBF800301906F6D5A4
:1011D000DBF800301906F7D4F1E772B63A788349A4
:1011E000002A54D0824A834C83482468834E126874
:1011F000006814443268044470681444B26820449F
:101200000244C2F34E027E487E4C42F40042026029
:1012100034302468B26900681444326A0444706A45
:101220001444B26A20440244C2F34E027648774C1A
:1012300006F5FF2642F40042026006F5FF6600F55F
:10124000002010302468326800681444B2680444F6
:10125000F0681444326920440244C2F34E026C48E0
:101260006C4C42F40042026034302468326A0068F8
:101270001444B26A0444F06A1444326B20440244B9
:10128000C2F34E02644842F4004202600B7062B640
:1012900035E5D9F8003013F0800308D0DBF80030D2
:1012A0001806F6D5DBF800301806F7D4F1E772B669
:1012B0003A784E49002A54D04D4A4E4C4E48246844
:1012C0004E4E126800681444326804447068144436
:1012D000B26820440244C2F34E024948494C42F4E9
:1012E0000042026034302468B26900681444326AF3
:1012F0000444706A1444B26A20440244C2F34E02A9
:101300004148424C06F5FF2642F40042026006F5D1
:10131000FF6600F50020103024683268006814442D
:10132000B2680444F0681444326920440244C2F3B1
:101330004E023748374C42F4004202603430246891
:10134000326A00681444B26A0444F06A1444326B8E
:1013500020440244C2F34E022F4842F4004202608D
:101360000B7062B627E594F8390094F838202B4FBB
:10137000904240F25581531CB918DBB298420E7E60
:1013800040F29081911CCDB23B44A842197E40F2BC
:1013900086813D4403322B7ED2B2904284BF01321B
:1013A000D2B284F838203EE194F8390094F838300D
:1013B0001A4E984240F21F81591CF218C9B2884255
:1013C000177E40F260819A1CD5B23144A8420A7E51
:1013D00040F26C8135440333297EDBB2984284BFEE
:1013E0000133DBB284F8383008E100BF091AFF1F6F
:1013F0003CB0034038B0034040B0034044B0034029
:101400002CB0034058B0034030B0034038B00B401C
:101410002CB00B4058B00B4030B00B404C08FF1FB5
:10142000019B02989A7D286082F0CF0383EA031320
:10143000D9B20B0283EAC10383F0830383EA111359
:101440001BB283F0010080EA0010C0B20702C3F3B0
:10145000072187EAC0034B4083EA10131BB283F0D5
:10146000010080EA0010C0B20702C3F3072187EA37
:10147000C0034B4083EA1013039868601BB295E8E1
:10148000030083F0970787EA0717FFB20DF1400CBE
:101490008CE803004FEAC70EC3F307218EEA072347
:1014A0004B4083EA171394F808E0677AA07A227118
:1014B0001BB28EEA030E8EEA0E1E5FFA8EFE4FEA14
:1014C000CE0CC3F307218CEA0E234B4083EA1E1394
:1014D0001BB25F4087EA0717FFB24FEA072EC3F33C
:1014E00007218EEAC7034B4083EA17131BB258400B
:1014F00080EA0010C0B20702C3F3072187EAC003E5
:101500004B4083EA101394F80BC094F80CE0677B0F
:10151000A07B1BB28CEA030C8CEA0C1C5FFA8CFCDF
:10152000C3F307214FEA0C2383EACC034B4083EA41
:101530001C131BB28EEA030E8EEA0E1E5FFA8EFE9D
:101540004FEA0E2CC3F307218CEACE034B4083EA0B
:101550001E131BB25F4087EA0717FFB24FEA072E40
:10156000C3F307218EEAC7034B4083EA17131BB26C
:10157000584080EA0010C0B20702C3F3072187EA8F
:10158000C0034B4083EA1013E07B1BB2584080EA53
:101590000010C0B2C700C3F3072187EA00234B4005
:1015A00083EA10131BB283F06B0080EA0010C0B214
:1015B000C700C3F3072187EA00234B4083EA1013D7
:1015C0001BB21FFA83F901324FEA192A4FF0970E26
:1015D000019923748A75FE20012208210E27627169
:1015E000A27184F811A084F807E0A070E1703A4677
:1015F0001024FFF761BBFF2217461146120242EA90
:1016000007430B43B3F5000F1A46029303DB03F1C4
:101610007F4302931A46274B01935A60FFF78FB915
:10162000FF210E460B46090241EA06421343019A86
:10163000039393601346FFF7BAB91F4BD3ED007ABB
:10164000D3ED016A37EE677AD3ED027AE7EE267AB8
:10165000FDEEE77A17EE903AFFF7EBB9164BD3EDB4
:10166000007AD3ED016A37EE677AD3ED027AE7EEBE
:10167000267AFDEEE77A17EE903AC0E40023FFF7F2
:10168000E0B90023C3E4FF220B461146A6E684F826
:101690003820FFF74BB984F83820FFF77FB92A4686
:1016A000FF237EE6FF211A460B4676E62B46FF21F6
:1016B00098E600BF880DFF1FBC11FF1F2DE9F04108
:1016C000B34C94F843340022CCB0054684F840244F
:1016D0000A2B00F23982DFE813F04E004E00F200D0
:1016E00057006C0081009600B100D2000B000B0087
:1016F0000A2B00F0D781B4F87034B0EB132F0CBF75
:101700004FF001084FF0020894F84434A04E84F8DA
:10171000408423444FF0010E08AF06F58E61384631
:1017200083F879544FF4887284F843E403F09EF907
:10173000B8F1010F40F00B82B6F8483496F87424E3
:1017400086F845240BB9A6F84A34013394F873643B
:10175000A4F848340023FE7084F84234FB79672BE8
:1017600000F02681682B00F0FC80652B00F0BF8024
:101770004CB0BDE8F081FE2800F08781002384F89A
:1017800042344CB0BDE8F081B4F8702484F875049C
:10179000554085EA0515EDB2EB0083EA052383EA9F
:1017A000122383EA15150523A4F8705484F84334F2
:1017B000E4E7B4F8702484F87404554085EA05150C
:1017C000EDB2EB0083EA052383EA122383EA1515C1
:1017D0000323A4F8705484F84334CFE7B4F870249A
:1017E00084F87604554085EA0515EDB2EB0083EAEE
:1017F000052383EA122383EA15150623A4F87054FF
:1018000084F84334BAE7B4F8702494F8731484F875
:101810007704554085EA0515EDB2EB0083EA052310
:1018200083EA122383EA1515A4F87054584B002953
:1018300040F00E81082283F843249FE794F8443453
:10184000534EE218013382F87804B4F8701494F817
:1018500073044D4085EA0515EDB2EA0082EA0522DF
:10186000DBB282EA112282EA1515984284F84434E8
:10187000A4F8705482D1082386F843347EE7454AA1
:1018800094F87734B4F87004D35C94F8441443406B
:1018900083EA0313DBB2DA0082EA032282EA10222F
:1018A00082EA1313D8B2621885420CBF09210A21BB
:1018B000A4F8703484F8431482F878545EE7B4F8DE
:1018C000702484F87304554085EA0515EDB2EB00E9
:1018D00083EA052383EA122383EA151500220423F1
:1018E000A4F8705484F8442484F8433446E7032E63
:1018F00032464FF0000428BF03220AA96846ADF81B
:1019000000408DF8024003F0B1F8234ABDF80030E2
:101910009DF8021082F86C10002B00F09D8007EEFD
:10192000903ADFED226AB8EE677AC6EE877AF5EE76
:10193000C07AF1EE10FA07D99FED187AF4EEC77A63
:10194000F1EE10FA40F3B180154B196800221A71BC
:1019500000293FF40DAF134B13480B441B111A54CD
:1019600006E7032E32464FF0000328BF03226846E5
:101970000AA9ADF800308DF8023003F077F89DF831
:101980000220BDF800302273E3814CB0BDE8F08145
:10199000880DFF1FA04B00003407FF1F8988884C6B
:1019A0001C1AFF1F008FFCBF30E400E000247449C4
:1019B0001D220021684602F095FF1D2E3246684622
:1019C00028BF1D220AA903F051F89DF81A30012BF7
:1019D0007FF4CEAEBDF818301FED0C6ADDED027A53
:1019E000009D019C03980599049A07EE103AB8EE01
:1019F000477A694BC6EE076A9D629C63586099609E
:101A0000DA60F0EEE77AF5EEC06AF1EE10FAC3EDB7
:101A10000D7A7FF6ADAEDFED617AF4EEE76AF1EEB6
:101A200010FA3FF7A5AE9FED5E7AFEEE007AE6EE85
:101A3000877AFCEEE77A17EE903A232B7FF698AE82
:101A4000584A1268002A3FF493AEC2ED007A8FE63E
:101A5000072283F8432491E6534D286800283FF479
:101A600087AE524A524F0244121102F1300101F086
:101A70001F0601244911B4404E4E47F821404E49FB
:101A800046F822102B60836072E6022100224FF696
:101A9000FF7384F8720484F8431484F87324A4F860
:101AA00070346BE64FF002082EE6DFED3D6A3E4BE8
:101AB000BEEE007AA7EEA67A1968FCEEC77A17EE9A
:101AC000902A232A7FF642AF01B301208C60C860C0
:101AD000364C384FDFF800E1384E0C44241104F145
:101AE0003005681147F824E080000A601F7903225E
:101AF00000F160408A6000F56140A75505F01F05C0
:101B0000012202FA05F5056019681FE72C480168F3
:101B100041F40001016000BF2A482B490124046000
:101B2000886819600028D3D01031896849B12749E5
:101B3000886838B11031886820B100221A601146D7
:101B400004E723491960C3E74FF0000808AF94F891
:101B50007364FE700021B8F1020F84F842141D4B2B
:101B600014D10122FE2D83F8401483F8422404D0BE
:101B700083F843244CB0BDE8F0814FF6FF7283F840
:101B8000438483F87314A3F87024F1E5B8F1000FCF
:101B90007FF4E4ADECE500BFC819FF1F8988884CCD
:101BA000000070420C1AFF1F1C1AFF1F008FFCBFA1
:101BB00080E100E02809FF1FCD3E000030E400E096
:101BC0003C800440007003400071034020710340DA
:101BD00010710340880DFF1FC50800000268AAB1FC
:101BE0000B4BF0B413441B1103F1300202F01F073A
:101BF000084E094C094D52110121B94046F82210F6
:101C000044F82350F0BC036800229A60704700BF7C
:101C1000008FFCBF80E100E02809FF1FCD3E0000DF
:101C20002DE9F047134C144F2368016982B04FF03F
:101C300000080193019D4FF496724FF4167E012621
:101C40004FF4A27CCB789B0640F1DD8123680093A2
:101C5000009B5B1B0F2BF5D9B8F1000F0ED0102B9A
:101C6000F0D000238B70026980211846917002B079
:101C7000BDE8F087BC19FF1F144D0000D0F8149088
:101C800090F8613009EB030191F808A0BAF13F0F19
:101C900000F2F48107EBCA0357F83A105B6881F849
:101CA0008082C3F8008090F86130D0F81490DFF89B
:101CB000408409EB030191F812A0BAF13F0F00F242
:101CC000A6814FEACA0108EB010958F83A30D9F861
:101CD000049083F88062C9F800C0D9F800A02AF007
:101CE000200AC9F800A093F880A2BAF1000F40F0D2
:101CF000F881D9F800A02AF0020AC9F800A091469C
:101D0000B9F10109FCD193F88092B9F1000F40F0CC
:101D1000D08108EB0109D9F804A0DAF8009049F065
:101D20000309CAF800909146B9F10109FCD193F872
:101D30008092B9F1000F40F0BF8108EB0109D9F89A
:101D400004A0DAF8009029F00209CAF80090914640
:101D5000B9F10109FCD193F88092B9F1000F40F07C
:101D6000AE8108EB0109D9F804A0DAF8009049F037
:101D70000309CAF800909146B9F10109FCD193F822
:101D80008092B9F1000F40F09D8108EB0109D9F86C
:101D900004A0DAF8009029F00209CAF800909146F0
:101DA000B9F10109FCD193F88092B9F1000F40F02C
:101DB000688108EB0109D9F804A0DAF8009049F02D
:101DC0000309CAF800909146B9F10109FCD193F8D2
:101DD0008092B9F1000F40F0578108EB0109D9F862
:101DE00004A0DAF8009029F00209CAF800909146A0
:101DF000B9F10109FCD193F88092B9F1000F40F0DC
:101E0000468108EB0109D9F804A0DAF8009049F0FE
:101E10000309CAF800909146B9F10109FCD193F881
:101E20008092B9F1000F40F0358108EB0109D9F833
:101E300004A0DAF8009029F00209CAF8009091464F
:101E4000B9F10109FCD193F88092B9F1000F40F08B
:101E5000248108EB0109D9F804A0DAF8009049F0D0
:101E60000309CAF800909146B9F10109FCD193F831
:101E70008092B9F1000F40F0138108EB0109D9F805
:101E800004A0DAF8009029F00209CAF800909146FF
:101E9000B9F10109FCD193F88092B9F1000F40F03B
:101EA000028108EB0109D9F804A0DAF8009049F0A2
:101EB0000309CAF800909146B9F10109FCD193F8E1
:101EC0008092B9F1000F40F0F18008EB0109D9F8D8
:101ED00004A0DAF8009029F00209CAF800909146AF
:101EE000B9F10109FCD193F88092B9F1000F40F0EB
:101EF000EC8008EB0109D9F804A0DAF8009049F069
:101F00000309CAF800909146B9F10109FCD193F890
:101F10008092B9F1000F40F0DB8008EB0109D9F89D
:101F200004A0DAF8009029F00209CAF8009091465E
:101F3000B9F10109FCD193F88092B9F1000F40F09A
:101F4000CA8008EB0109D9F804A0DAF8009049F03A
:101F50000309CAF800909146B9F10109FCD193F840
:101F60008092B9F1000F40F0B98008EB0109D9F86F
:101F700004A0DAF8009029F00209CAF8009091460E
:101F8000B9F10109FCD193F88092B9F1000F40F04A
:101F9000AB80414449680B6843F003030B60134670
:101FA000013BFDD1D0F8149090F8613009EB030AA1
:101FB00071469AF80D309AF808A008EBCA0A1B027D
:101FC000DAF804A003F4E06343F06403CAF80030D5
:101FD00090F86230994499F812A099F8173008EBFC
:101FE000CA081B02D8F8048003F4E06343F06403DA
:101FF000C8F800300139FDD10169CB789B064FF05C
:1020000001083FF523AE012002B0BDE8F08711467C
:102010000139FDD111460139FDD111460139FDD1FA
:1020200011460139FDD111460139FDD11146013961
:10203000FDD111460139FDD111460139FDD11146BD
:102040000139FDD111460139FDD111460139FDD1CA
:1020500011460139FDD111460139FDD11146013931
:10206000FDD111460139FDD111460139FDD111468D
:102070000139FDD111460139FDD197E7DFF87080B4
:1020800019E683F880609EE683F80061AFE683F886
:102090008060C0E683F80061D1E683F88060E2E604
:1020A00083F80061F3E683F8806004E783F8006159
:1020B00015E783F8806036E683F8006147E683F829
:1020C000806058E683F8006169E683F880601AE76B
:1020D00083F800612BE783F880603CE783F80061B8
:1020E0004DE783F800610AE683F8806057E700BF98
:1020F000144D000010B4244B5A6894020AD5234AA8
:10210000D968137892F8710001333F2BC8BF0023C0
:1021100083422CD11C4A9368180202D552681102DE
:102120000ED45A0209D5184B5B685B0205D51749D6
:10213000174A002381F8703013605DF8044B704734
:10214000124A92F8440092F84510C9B2884214D05D
:102150000131272986BF00200146C8B211440A4C2C
:1021600091F84810C9B2E16082F84500D9E7D0186B
:10217000C9B2DBB201711370CCE70648044A0024EF
:10218000012104601160CCE700400C403816FF1FAD
:10219000580188435C01884310B4244B1A79920695
:1021A0000CD5234AD97992F8723092F8E1000133C4
:1021B0003F2BC8BF00238342C9B213D11B49CB7840
:1021C000DBB21C0615D4590609D5184B1A795206EC
:1021D00005D5174900202C2281F8E000DA705DF85F
:1021E000044B7047D018DBB280F8741082F872305C
:1021F000E4E70A791006E6D50D4A92F8B44092F861
:10220000B500C0B284420ED0411C272986BF0020F1
:102210000146C8B21144054C91F8B810C9B2E17139
:1022200082F8B500CFE76C22CA70CCE700A00E4060
:102230003816FF1F10B4244B1A7992060CD5234A86
:10224000D97992F8E23092F8510101333F2BC8BF9F
:1022500000238342C9B213D11B49CB78DBB21C06E1
:1022600015D4590609D5184B1A79520605D51749C0
:1022700000202C2281F85001DA705DF8044B704781
:10228000D018DBB280F8E41082F8E230E4E70A7993
:102290001006E6D50D4A92F8244192F82501C0B205
:1022A00084420ED0411C272986BF00200146C8B2B7
:1022B0001144054C91F82811C9B2E17182F8250149
:1022C000CFE76C22CA70CCE700D006403816FF1F5B
:1022D00010B4244B1A7992060CD5234AD97992F876
:1022E000523192F8C10101333F2BC8BF0023834212
:1022F000C9B213D11B49CB78DBB21C0615D45906E1
:1023000009D5184B1A79520605D5174900202C22F9
:1023100081F8C001DA705DF8044B7047D018DBB269
:1023200080F8541182F85231E4E70A791006E6D5B4
:102330000D4A92F8944192F89501C0B284420ED0B1
:10234000411C272986BF00200146C8B21144054C14
:1023500091F89811C9B2E17182F89501CFE76C222A
:10236000CA70CCE700C006403816FF1FF0B4334BEC
:102370001A7912F0300F22D072B6997D01F0FF0267
:1023800000292FD062B62E4D95F8C24195F8C36151
:102390001846E4B2F6B2631C402BC17928BF002373
:1023A0009E4202F1FF32C9B203D0EF181C4687F8F3
:1023B000C41112F0FF02EED1E4B285F8C2411F4908
:1023C000CA78D2B2150612D4510609D51B4B1A7918
:1023D000520605D51A4900203C2281F83002DA70F5
:1023E000F0BC70474022D9795A7462B6E7E70B799E
:1023F0001C06E9D5124D95F8044295F80532E4B271
:10240000DBB29C4202D10EE0A3420CD00133282B58
:1024100028BF0023E8180E7990F80802C0B2C871EE
:10242000087D0728F0D9DBB2044985F805320B791D
:10243000180644BF7C23CB70C6E700BF00B006403F
:102440003816FF1FF0B4334B1A7912F0300F22D038
:1024500072B6997D01F0FF0200292FD062B62E4D91
:1024600095F8314295F832621846E4B2F6B2631C30
:10247000402BC17928BF00239E4202F1FF32C9B22E
:1024800003D0EF181C4687F8341212F0FF02EED189
:10249000E4B285F831421F49CA78D2B2150612D487
:1024A000510609D51B4B1A79520605D51A49002049
:1024B0003C2281F8B802DA70F0BC70474022D9792A
:1024C0005A7462B6E7E70B791C06E9D5124D95F808
:1024D000744295F87532E4B2DBB29C4202D10EE050
:1024E000A3420CD00133402B28BF0023E8180E79FB
:1024F00090F87802C0B2C871087D0728F0D9DBB225
:10250000044985F875320B79180644BF7C23CB70DB
:10251000C6E700BF00A006403816FF1FF0B50369EC
:102520001222DA700269937803F0200385B0044622
:10253000002B5DD0B4239370394922690B68019355
:10254000019D164605E00B680093009B5B1B042B66
:1025500040D8D37803F0200303F0FF00002BF2D023
:1025600094F85D30002B2ED000274FF0020EE319B7
:1025700093F83B3013710B680393039E206907E0C7
:102580009B060DD50B680293029B9B1B052B28D83D
:10259000C378DBB203F0020202F0FF05002AEFD09D
:1025A00080F803E02669F378DBB2DD0632462DD4ED
:1025B0009D062BD513F001032DD1013794F85D0052
:1025C000FFB2B842D3D8184680220023B27084F8F4
:1025D0005E3004E09070236980229A70042005B078
:1025E000F0BD85702369802204209A7005B0F0BD8B
:1025F00003F0FF05FFF714FB10B9042005B0F0BD90
:10260000236984F85F50B0229A7095E78023B370F5
:1026100026690420D8E7002F14BF03200220D3E747
:10262000BC19FF1F2DE9F0416C4C226900231221D7
:1026300084F8383084F83930D1702269937803F007
:10264000200388B0002B00F09680B4239370644A76
:10265000216913680793079805E013680693069BA2
:102660001B1A042B7FD8CB7803F0200303F0FF055F
:10267000002BF2D031230B71136805930598216963
:1026800005E013680493049B1B1A052B6BD8CB78C9
:1026900003F0020303F0FF05002BF2D00225CD70FA
:1026A00023694E4FDE7816F0110671D1A021997082
:1026B00039690B794FF0030E4FF0A80C13680393A0
:1026C000039805E013680293029B1B1A052B63D83D
:1026D000CB7803F0020303F0FF08002BF2D0CD709B
:1026E0002169CB78DBB2D80665D49B0663D5BEF1F1
:1026F000010F04BF81F802C039691F2E55D90B792B
:102700000EF1FF3E1EF0FF0ED8D113680193019D1C
:1027100005E013680093009B5B1B052B4DD8CB781D
:1027200003F0020303F0FF00002BF2D00223CB7072
:1027300021692A4BCA78D2B2D00640D492063AD543
:10274000B0228A701F2E1A6946D83344117919763F
:102750000136F6B200BF00BF00BF8023937035463C
:1027600084F8396003E08D70236980229A702846CE
:1027700008B0BDE8F081204603F0FF05FFF750FAEE
:102780000028F4D0236984F85F50B0229A705EE785
:1027900080229A700025EAE781F80280236980226E
:1027A0009A70354684F83960E1E7A31908791876FC
:1027B0000136F6B2A4E73546D9E78870EEE7102077
:1027C0004FF49672C870013AFDD11A69937803F0FC
:1027D000F70335469370CAE71379BBE74C08FF1F30
:1027E000BC19FF1F08B50C4B012283F85E20B3F81B
:1027F0005E1083F85D20602283F83B2029B18000C1
:10280000022283F83C0083F85D20002001F00CFADE
:102810000148BDE8084081E6BC08FF1FF0B5154B34
:10282000012283B083F85E20B3F85E408DF8071074
:102830000F0A0E0C3025090E8DF806708DF8056014
:102840008DF8041083F83B5083F85D203CB1502193
:10285000032283F83D0083F83C1083F85D200422B6
:102860000DEB02010348FEF70FF80248FFF756FE92
:1028700003B0F0BD4C08FF1F08B50F4B012283F8D1
:102880005E20B3F85E1083F85D20302283F83B2091
:1028900029B10221802283F85D1083F83C2006488C
:1028A000FFF73CFE4FF41673013BFDD14FF0007172
:1028B0008220BDE80840B1E74C08FF1F70B52C4CE2
:1028C000012384F85E30B4F85E2084F85D30302354
:1028D00084F83B303AB11022032384F83D0084F899
:1028E0003C2084F85D30224D2846FFF717FE4FF458
:1028F0001673013BFDD1FFF795FE94F8396094F80B
:1029000038108E421FD96B184A1C187ED3B2B342BE
:102910004FEA006020D2EA188B1C127EDBB29E4286
:1029200040EA024020D91D44CB1C2A7EDBB29E42E5
:1029300040EA022014D9E2180133127ED9B21043C2
:1029400084F8381070BD0B4800236FEA10406FEA1E
:102950000040002BF4D170BD40F47F00FF22E6E779
:1029600040F0FF001946EBE719460123EDE700BFF1
:102970004C08FF1F0000FFFF2DE9F04FDFF8E49245
:10298000DFF8E4A285B05AE0A84E9F0806EBC7081E
:10299000013DD8F8041003F00803EDB2A1F10800DE
:1029A00003F0FF04002B40F0148156F837301B0C65
:1029B0001FFA83FE21F808EC002B00F001819C4AED
:1029C00021F8064C4FEA850C02EB0C0B41F8044C45
:1029D000DBF81C30002B00F08181DBF82C305860D4
:1029E000944C34F8153062449E44D06224F815E0CB
:1029F00072B691480268B2FA82F30B2B00F365813C
:102A00004FF00041D94022EA0102026062B68B4CCD
:102A10008B488C4A03EBC30304EBC30118F0080F87
:102A200018BF024601F108050020C8F8045046F816
:102A3000372044F833004860082389F8003099F8BB
:102A40000030DBB258071BD57F4A1278AAB178480C
:102A5000017A01F0FF0229B1013AD2B20272002AD2
:102A600000F00B857948017801F0FF0229B1013AA5
:102A7000D2B20270002A00F01081042289F80020EE
:102A800003F0080202F0FF01002A00F0EF809AF83C
:102A90000030DBB21D097FF477AF9B08DFF88CB103
:102AA0005BF833200BEBC300C2F38302013A4068AA
:102AB0000C2A76D8DFE802F0797975757575757529
:102AC0004175757507000568594A40681061D56001
:102AD000A8B240F281650024594F4BF833700126AB
:102AE000A842CBF8104054611676CBF818404F4BF3
:102AF00000F2F780B0F5D06F80F09383B0F5817F5E
:102B000000F07F8300F24082802800F091818228CB
:102B100040F03383138A03F07F03042B00F22D83EC
:102B20004B4814709B001844547003789C0740F184
:102B3000E4831670104602267EE13D4A536933B3A2
:102B4000D08F92F83C50147E4028064645F002078C
:102B500028BF402685F00105002C84F0010414767E
:102B6000A0EB060082F83C5008BF88240BEBC70599
:102B700018BFC82480B244EA06446B60D08733444F
:102B80004BF8374010B9402E18BF0023536193898A
:102B9000274AB3F5A06F04D10021937B51732D4ACE
:102BA00013702D4A0123137046E7214A958942F29A
:102BB0002104A54200F09681214A4BF83320F0E72A
:102BC0001F4A204B18F0080F18BF134646F837303D
:102BD00032E701F07BFB2149214A51F82530002BD7
:102BE00000F070815868545D41F8250003F1080138
:102BF000C8F80410032C05D8DFE804F0120F150202
:102C0000042151551A8818F0080F0CBF8823C823D7
:102C100043EA024346F837300EE702215155F1E707
:102C200003215155EEE705215155EBE70000FF1F49
:102C3000F418FF1F6C1AFF1F3C09FF1FD003FF1F72
:102C4000C800400088004000C019FF1F641AFF1F21
:102C5000C020074098200740942007403C1AFF1FDF
:102C6000501AFF1F8020074090200740D80700F12E
:102C7000C381190600F165829A0706D5B349B448A5
:102C80000A780224D2B20A700470DB0602D5B04B77
:102C900010221A7005B0BDE8F08FAE4A1278002AF3
:102CA0007FF4EBAEAC4C2168002900F003834A8826
:102CB0000A8072B6A94AD078032800F23C83DFE884
:102CC00010F0750263027802190362B6A44A137801
:102CD0000021013346F837101370ADE6CBF81C0025
:102CE0007EE642F22105A84200F0E88000F27381FE
:102CF000B0F5086F00F02F82B0F5106F40F03D8204
:102D00009848947B0470186A010600F12483DBF86C
:102D1000283095481F0600F18B83DBF8303092484D
:102D20001E0600F17E83DBF838308F481D0600F167
:102D30007183DBF840308C481C0600F16483DBF8BB
:102D400048308948190600F13F83DBF85030864847
:102D50001B0600F13283DBF8583083481F0600F170
:102D60002583DBF8603080481E0600F11883DBF80D
:102D700068307D481D0600F10B83DBF870307A481F
:102D80001C0600F1FE82DBF878307748190600F166
:102D9000F182DBF8803074481B0600F1E382DBF837
:102DA000883071481F0600F12683DBF890306E48AA
:102DB0001E0600F11883DBF898306B481D0600F101
:102DC0000A836A496A4B6B4C019100266349DFF81C
:102DD000B4810294009135461C460392206828B1C4
:102DE000476801F073FA3846002FF9D1624BD8F8E2
:102DF0000000256043F8265028B1476801F066FAC4
:102E00003846002FF9D1019A009B42F8045B1B78E9
:102E10000192029AC8F80050023B22F81650032B88
:102E200000F21D81DFE813F08A0117018A01170102
:102E30001470547002261046548A504BB44280F0ED
:102E40001D8393F83CE04EF0020C0BEBCC03402CBE
:102E5000A04628BF4FF04008586000EB0805C8EBBB
:102E600004034FEA084700240126C82007438EF0D8
:102E700001004BF83C70147682F83C003A4FDFF8C2
:102E8000FCC0002B40F09881B8F1400F16D140F003
:102E900002000BEBC001344F4D601904002C40F0D0
:102EA0009E8141F08801167682F83CE047F83010A8
:102EB0001D44402B02D100235561D387304A0123A2
:102EC00013706EE6535D032B00F2948101A151F85B
:102ED00023F000BF392A0000392A00004B300000DF
:102EE00051300000148ACCB904784678857882F88D
:102EF000C040C47882F8C16082F8C25082F8C340F2
:102F0000D2F8C04006794579807982F8C460862C71
:102F100082F8C55082F8C60000F0228192F83C4049
:102F2000107E44F002050BEBC50684F00104002876
:102F300082F83C404FF00004746080F001000CBF48
:102F40008824C8244BF83540107635E688200740A1
:102F500080200740351AFF1F381AFF1F501AFF1F25
:102F6000651AFF1FC019FF1F0000FF1F541AFF1F23
:102F70001019FF1F6C1AFF1F2019FF1FF418FF1FE5
:102F8000942007403C1AFF1F40F20233984240F061
:102F9000EA80138A03F07F03042B00F2EE80D489C9
:102FA000002C40F0EA80A9489B001844037843F0C5
:102FB0000203037000231D461F469846184692F8E8
:102FC0003CE04EF0020C0BEBCC01002E48600CBF35
:102FD0008820C8204AE742F22123984240F0C98065
:102FE000138A002BE6D19A4D9A4C2D689A48256099
:102FF000947B04701C46DDE7984A9948994B82F807
:103000003C1002260670984CDFF840C21C6002F1AA
:10301000400680325E60954D9C60DA60196199616E
:103020000D238CF80030DFF874E2914F914E924CF2
:10303000FF232B7001229F258EF8003039703370EA
:103040002570027005B0BDE8F08F00235355F3E4FE
:1030500001235355F0E4009B4FF001021A70009BCE
:1030600001360133042E04F1040408F1040800932E
:103070007FF4B4AE814C824E82488349039A794FE3
:1030800000234FF0150E192523700B70CBF830304C
:10309000CBF8383086F800E0CBF85030CBF8583019
:1030A000057072B6794E3568B5FA85F00B2800F3D5
:1030B000C6814FF0004E2EFA00FE25EA0E0535605F
:1030C00062B6DFF8CCE1684900EBC0000EEBC0054A
:1030D0004EF8303005F1080078666B60396672B6DC
:1030E00030686A4DB0FA80F30B2B00F3B8814FF0D3
:1030F0000044DC4020EA0400286062B6644D654E5E
:1031000003EBC30305EBC30000F10804CBF86C40EC
:10311000002445F83340CBF8686044605E480023E3
:103120001524CBF87030CBF878300470167ECBF8CD
:10313000903086F00104CBF898303BE7009B1D707F
:103140008DE7564A41480D248021047011709A077A
:103150007FF59BAD92E5524B1B78137010466BE6E2
:103160000F201072DAE6B0F5A06F06D10024012618
:1031700020E742F221339842F8D0344A0F231370EB
:10318000374A012313700CE546480225D5700D8897
:1031900010F0080F0CBF8822C822083142EA05420D
:1031A0004160026062B60022226066E403253E4868
:1031B000ECE705253C48E9E7402B7FF668AE40F098
:1031C000020007EBC0014D6094B132498CF81860E1
:1031D0008CF83CE0403B403547F830106CE641F05D
:1031E000C801167682F83CE01D4447F8301060E6CE
:1031F0001D49EBE718F0080F0CBF022303235355BA
:103200001AE4138A03F07F03042BB6D8D489002C68
:10321000B3D10E489B001844037823F002030370D7
:10322000C8E6D589168A2148214B03E00C3358683B
:103230000028A2D01988A942F8D15988B142F5D105
:103240002D0A032D0CBF06781E89F5E5C020074026
:10325000BC19FF1FC419FF1FC119FF1FF418FF1F5E
:10326000942007400000FF1F88004000882007408E
:10327000982007408C20074084200740651AFF1FD4
:10328000C8200740CC200740C42007403C09FF1F4E
:10329000D003FF1FC8004000D02007408020074017
:1032A000C019FF1F9800FF1F9000FF1FA407FF1FFA
:1032B000C04C000072B6784D2C68B4FA84F20B2A28
:1032C00044DC4FF00040D04024EA00042C6062B699
:1032D000724D02EBC20005EBC00445F8301061608E
:1032E00072B66F4AD178032900F2AF80DFE801F0AF
:1032F0001D081A2004256B4848E7022610469BE566
:103300006849022611F0080F35F83000D6700CBF5E
:103310008822C822083442EA00424C600A6062B641
:10332000FFF7ABBB05266049ECE703265E49E9E7FA
:1033300004265C49E6E75D4AD068002800F09780E3
:103340005B4AD0684160D16062B62CE762B6012268
:103350000270FFF792BB586A0092083800F0B6FF7F
:10336000009AD4E4D0F884000092083800F0AEFF50
:10337000009A14E5C06F0092083800F0A7FF009A89
:1033800007E5406F0092083800F0A0FF009AFAE4C9
:10339000C06E0092083800F099FF009AEDE4406E8C
:1033A0000092083800F092FF009AE0E4C06D0092AD
:1033B000083800F08BFF009AD3E4406D0092083883
:1033C00000F084FF009AC6E4C06C0092083800F058
:1033D0007DFF009AB9E4D0F89C000092083800F014
:1033E00075FF009AEDE4D0F894000092083800F0E0
:1033F0006DFF009ADFE4D0F88C000092083800F0EE
:1034000065FF009AD1E4406C0092083800F05EFF3E
:10341000009A94E4C06B0092083800F057FF009ABD
:1034200087E4406B0092083800F050FF009A7AE47D
:10343000C06A0092083800F049FF009A6DE462B655
:1034400020783B66431C237049E6184AD16889B14D
:10345000174AD1684C60D46062B6FFF70EBB62B603
:10346000237800200133CBF86800237056E6D16042
:103470000F4A68E7D4600E4AEDE700BE402EB04622
:1034800028BF4FF04008C8EB06034FEA084700EB9F
:1034900008050024012692E53C09FF1FD003FF1F09
:1034A000501AFF1F9800FF1F9000FF1F3C1AFF1FBC
:1034B000541AFF1F2DE98848344DDFF8E480DFF807
:1034C000E4A0DFF8E490324F324EDFF8E0B0324C47
:1034D0000BE0DBF80020500511D4DBF800201105CB
:1034E00013D4DBF80020D20415D4DBF800205303FA
:1034F000EFD5FFF741FADBF800205005EDD5FEF7D8
:10350000A1FFDBF800201105EBD5FEF72FFFDBF85C
:103510000020D204E9D5227993060DD5E1792A78E5
:10352000307801323F2AC8BF00228242C9B203D09C
:10353000D0B208F802102870E278D2B2100609D48E
:103540005206D2D522795306CFD500212C223970CC
:10355000E270CAE721790906F2D59AF8000099F8D5
:103560000010C9B288420DD00131272984BF002044
:1035700001460A4B98BFC8B2595CC9B2E17189F8DB
:103580000000DDE76C21E170DAE700BF8A17FF1F5A
:10359000F817FF1FF917FF1F00C00640D017FF1FC5
:1035A0008C17FF1FCC17FF1FCD17FF1F348004405F
:1035B00008B5FFF77FFF00BF2DE9F843054672B657
:1035C000214E224B22491B683268096862B64901C4
:1035D00002D5322B88BF0132A5B3C3F52F334FF488
:1035E0007A71DFF86890DFF868801A4FB42403F22C
:1035F0001F33B3FBF4F301FB023472B6D9F80010A9
:103600003268D8F800E062B6C1F52F3303F21F33F9
:103610009B08A7FB03031EF0806FC4EB93034FF4DA
:103620007A7002D0322988BF013200FB0233B3F531
:103630007A7F04D3013D05D004F57A74DDE700F00C
:10364000E3FCDAE7BDE8F883BC19FF1F18E000E0EF
:1036500004ED00E0176CC116BA4BBB49DFF84CC350
:10366000BA48BB4AF0B54FF000641C604FF080547C
:103670001C604FF000541C604FF080441C604FF001
:1036800000441C60DFF828E3B24EB34DB34F002472
:103690000C6028234EF6FF71CCF80010CEF80030F5
:1036A00003600EF5012E136033602B6006F50026D3
:1036B0003B6005F50025836207F50027936200F55E
:1036C000012002F5012206F6E87605F6E87507F511
:1036D0007F6710320EF1100E203033602B60CEF871
:1036E00000303B60136003609D48BB619361092219
:1036F0000260A7F5002700F58050203F08303C60AD
:103700000160BB60C36047F8042C00F5FD2007F59D
:10371000FE27043700F2FC70046039608360FB60B0
:1037200040F8042C083000F6FC70C7F8FC4F01602C
:10373000A0F5E120A0F2DC7033602B60C7F8F82F11
:103740000268884942F4007202600A6886480EF5F1
:103750007F4E0EF1E80E07F5883706F5803605F541
:10376000803542F000720A6047F6FF710822CEF8F9
:10377000004085B0396033602B60026001F02AF8A8
:103780001420FFF719FF72B6784A1378802B00F0E7
:103790001581774A774B78491160702280211A7021
:1037A0001A46197013781B06FCD57049734B0A78BA
:1037B0001B68012A00F00B8162B6714A714E934278
:1037C0009CBF0A225343A6FB0312D20802EB8201DC
:1037D000A3EB410330338DF804301346002A00F088
:1037E000088101A804460021A6FB0352D20802EB7F
:1037F0008205A3EB4503303304F8013F0131134642
:10380000002AF1D104AC0C4401AA0A4404F80B3C90
:103810001478057800F8014B0133CC1AA34202F862
:103820000159F5DB9DF80430574A002B00F0DD808C
:103830009DF80510D382002900F0DE809DF8063047
:103840001183002B00F0DA809DF8071053830029C4
:1038500000F0D6809DF808309183002B00F0D280D4
:103860009DF80910D383002900F0CE809DF80A301E
:103870001184002B00F0CA809DF80B10538400299E
:1038800000F0C6809DF80C309184002B00F0AC80D5
:103890009DF80D10D3840923002900F0A68011851E
:1038A00016200023394910751A4601EBC30041F870
:1038B00033200133142B42604FF000043348F4D11D
:1038C0003349344A0B68DFF8ECC0334F334E344D84
:1038D000DFF8E4E043F480230B60136843F04073A7
:1038E000136003238CF8003001F52831A0233B70CE
:1038F0007C31C0F3072302F5C92233701032C0F3C4
:103900000743000E0B702870FF2326488EF8003006
:10391000254E0CF8BC3C0B4D13700123F83207F810
:10392000AC3C81F85040702703704FF40014102114
:103930004FF48C7037702C60117005B0BDE8F0400A
:103940003AE600BF04E100E0048003401480034035
:103950001C800340248003402C80034034800340BB
:10396000008003400480044000900C4003E00740C6
:103970000400024000000240000007410C00024029
:103980007F969800CDCCCCCCA407FF1F0000FF1F72
:103990003480044000D80040402107409C2007406C
:1039A000B42007408420074035E400E0088003404D
:1039B0000C80034044210740802007401549164BE6
:1039C000164808601C701378802BFCD0E1E602F1E9
:1039D000804202F5FC22602010700A78802AFCD117
:1039E0000C4A0F491160E7E60823581C4000C0B29A
:1039F00057E78DF8052015E70123F6E70223F4E7E2
:103A00000323F2E70423F0E70523EEE70623ECE7C0
:103A10000723EAE74480044001E007400000282231
:103A200000000602FEE700BFFEE700BF0A4908B536
:103A3000CB6A40B16A461844A2F50052904204D2C3
:103A4000C862184608BD184608BD00F01DFF0C23CB
:103A500003604FF0FF3008BDA407FF1F0023426939
:103A600080F8383080F8393080F85C3080F85D308C
:103A700080F85E3080F85F3006CA30B40C68436668
:103A8000224383660A60026918499370426990F87C
:103A90006130146813441D7A5B7B01EBC5051B0282
:103AA0006D6803F4E06343F064032B6090F86230C8
:103AB00013449D7CDB7D01EBC5011B02496803F4C7
:103AC000E06343F064030B6021685368194205D03A
:103AD00003692C225A70036904229A710369202217
:103AE0005A71036980229A7030BC7047144D0000EF
:103AF00043690CCB12681A4205D003691C225A7024
:103B0000036904229A71704730B4436990F86120C8
:103B10001A44147A8C421AD01A7AFF2A17D091428A
:103B200032D05A7AFF2A12D091422FD09A7AFF2AA5
:103B30000DD091422CD0DA7AFF2A08D0914208D0D9
:103B40001A7BFF2A03D08A4208BF042202D030BC6D
:103B5000704703221D6859682D680D4211D00D4928
:103B600001EBC40413446468002525601C7A5B7B68
:103B700001EBC4011B0203F4E063496843F06403F2
:103B80000B6080F86120E2E70022E3E70122E1E731
:103B90000222DFE7144D000030B4436990F8622040
:103BA0001A44947C8C421AD09A7CFF2A17D09142F6
:103BB00032D0DA7CFF2A12D091422FD01A7DFF2A10
:103BC0000DD091422CD05A7DFF2A08D0914208D0C6
:103BD0009A7DFF2A03D08A4208BF042202D030BC5B
:103BE000704703221D6859682D680D4211D00D4998
:103BF00001EBC40413446468002525609C7CDB7DD4
:103C000001EBC4011B0203F4E063496843F0640361
:103C10000B6080F86220E2E70022E3E70122E1E79F
:103C20000222DFE7144D00000A4AB2F8CE3073B129
:103C300092F8CD30202B07D8D118013381F8AB0092
:103C400082F8CD3001207047012382F874300020C3
:103C5000704700BF4C08FF1FF8B58B4C2068214609
:103C600040F2EE2523793BB14B79DB0704D50B6895
:103C70008A689B1A0E2B08D8236822791B1A002AFF
:103C800000F0F780B3F5FA6FECD9804D2846FFF7C6
:103C9000E5FE28461221FFF737FF13212846FFF7DC
:103CA0007BFF2846FFF724FFFEF7E6FD8120FEF7A5
:103CB00005FEF220FEF702FE06468220FEF7FEFD1C
:103CC00026F4400141F0C021F220FEF7A7FDF220CA
:103CD000FEF7F4FD6E4EFEF7CFFD6E4A6E4961634E
:103CE00001274FF4A27195F86C0086F8807211607C
:103CF00011686A4B236421F0200111604FF07E535C
:103D0000674F684E68492361032210286361A361ED
:103D100067646662A16284F84C205B4B09D093F81B
:103D20004D30102285F86C20002B40F0A68000F06A
:103D300051FD564E06F17000FFF790FE06F170003F
:103D40002521FFF7E1FE06F170002621FFF724FF91
:103D500006F17000FFF7CCFE012385F8CE30B5F8F0
:103D6000CE2085F8CD305E2385F8AB302AB1022213
:103D7000112386F8CD2086F8AC30444EAF20FFF7F3
:103D800053FF06F17000FEF7C9FB012385F8CE3022
:103D9000B5F8CE2085F8CD305E2385F8AB302AB15A
:103DA0000222122386F8CD2086F8AC30374EE02070
:103DB000FFF73AFF06F17000FEF7B0FB2D20FEF78B
:103DC00011FD0B20FEF70EFD1020FEF70BFD352038
:103DD000FEF708FD012385F8CE30B5F8CE2085F832
:103DE000CD3060210023237385F8AB103AB10C214C
:103DF000032286F8AD3086F8AC1086F8CD20234E2D
:103E000006F17000FEF78AFB012385F8CE30B5F885
:103E1000CE2085F8CD3080216023617385F8AB30EA
:103E200042B10A210322002386F8AC1086F8CD2087
:103E300086F8AD301D48FEF771FB002680251C4A30
:103E40001C491D48266584F8545000F011FD184A9D
:103E500018491A48A66584F85C5000F009FD2666EA
:103E600084F86450124A13491548BDE8F84000F040
:103E7000FFBCAB427FF6F6AE07E71249124A0023B9
:103E80000B60136053E700BFBC19FF1F4C08FF1FF6
:103E90001410FE4314B0044014AE873F0AD7233CED
:103EA0009A99194000002041000020C1BC08FF1F62
:103EB0003007FF1FDD1B00000C1AFF1F141AFF1F25
:103EC0001C1AFF1F24B0034024B00B40704700BFF2
:103ED000024A034B01211160DB6818473C71034023
:103EE0002809FF1F024A034B012111609B681847F4
:103EF0002C7103402809FF1F024A034B0121116066
:103F00005B6818471C7103402809FF1F024A034BD6
:103F1000012111601B6818470C7103402809FF1F1D
:103F20000368F0B40BB3002501249D60DC601E4CD7
:103F30001E4D1F4E1C44241104F1300345F824107B
:103F40000568591103272A608900AF600079A055E0
:103F500001F1604103F01F0201F56141012303FA01
:103F600002F218460A60F0BC7047124D2C6844F407
:103F700000042C6000BF104D104C01262E60A56877
:103F800004607DB11034A56804605DB11034A5688B
:103F900004603DB11034A56804601DB10360F0BC3D
:103FA000184670472346C2E7008FFCBF2809FF1F51
:103FB00030E400E03C8004400070034000710340A6
:103FC000024A136801331360704700BFBC19FF1F1A
:103FD00038B5EFF3108272B60A4C206878B100252C
:103FE0004369236003B19D6102B962B64577836876
:103FF0009847EFF3108272B620680028F0D102B91A
:1040000062B638BD281AFF1F184A137C9BB170B5E1
:10401000174C217971B9D90744BF03F0FE0313741B
:1040200000225B072271124A04D5936813B1EFF3A3
:1040300005830BB170BD7047EFF3108172B69068C5
:1040400008B1137B1BB10029F4D162B670BD45697C
:1040500095600126167305B1AB6101B962B6002502
:104060004577836898472573E4E700BF2809FF1F59
:10407000281AFF1F2DE9F04F8D4D83B001236B737C
:104080000191002900F0F98004460F46DFF838B2AC
:1040900005E0052385F83C30002F00F0EE802A690A
:1040A000002A7BD0B2F802E0CEF14003BB4228BF29
:1040B0003B460EEB030080B202F1080A0026FF1A0D
:1040C000508003F1FF3C0AEB0E0185F82460002BC1
:1040D00049D00EF108000EF10C0E9644104404F184
:1040E0000408404538BF74452CBF4FF0010E4FF017
:1040F000000E092B94BF4FF0000E0EF0010EBEF122
:10410000000F42D044EA000E1EF0030F3DD1A3F190
:10411000040E4FEA9E0E0EF1010EBCF1020F4FEAA3
:104120008E0830D9A4F104090097013659F8047FAC
:1041300040F8047BB645F8D84345009F4144C8EB9E
:104140000C0C04EB08007CD006780E70BCF1000F5C
:1041500017D046784E70BCF1010F12D0807888706D
:10416000234450881C463F2893D94023138072B6BD
:1041700095F82B30032B00F28F80DFE803F0846684
:10418000878A2344EDE72046DEE70139234414F80B
:10419000010B01F8010F9C42F9D1E2E79BF80030D6
:1041A000D3B1444E4FF0010872B62B6A002B4AD0AF
:1041B00000225B680132002BFBD162B6072A12D9BC
:1041C000013E36D095F82430002B32D1FFF71CFF8A
:1041D0009BF80030002BE7D100234FF0FF306B73CA
:1041E00003B0BDE8F08F85F80D8072B6324B5A6986
:1041F000B2FA82F30B2B15DC4FF00041D94022EAD2
:1042000001022D494A6162B62C4A03EBC30302EB5B
:10421000C301274A1161294A002042F833000A46A7
:1042200048603FE762B6224A0023013E13615373A0
:10423000C8D101234FF0FF3085F8243003B0BDE82A
:10424000F08F03468DE71A46B7E71D4B022185F82C
:104250002B101188C3F804A013F0080F0CBF88229C
:10426000C82242EA01421A6062B600232B6105238C
:1042700085F83C30002F7FF412AF019800236B7358
:1042800003B0BDE8F08F03210E4BE0E705210D4B95
:10429000DDE704210A4BDAE72B6A2BB1044B9B6B59
:1042A0005A60AA6362B6E0E7014B1A62F9E700BF01
:1042B000281AFF1F214801002809FF1FD003FF1FF4
:1042C0009800FF1F9000FF1FC019FF1F1F4A204BBF
:1042D000821AA3FB02231B090B2B10D810B41D4A12
:1042E00092F83D1061B972B61B484FF00041426927
:1042F00021FA03F31A43426162B65DF8044B70473A
:10430000164909780029EED072B615490C6E8CB1A9
:104310008C6E24B162B6002182F83D10E3E792F87A
:104320003D30104C0830013BC86682F83D308C6649
:1043300062B6E2E792F83D300B4C0830013B48662C
:1043400082F83D300C6662B6D7E700BFD003FF1F8E
:10435000398EE338281AFF1F2809FF1FC019FF1FD5
:104360000000FF1FC8004000880040002B4C2C4973
:104370004EF65F2280B52046FFF7D2FD216801226C
:10438000227121B1274B28480B441B111A54274C8A
:10439000274A28492046FFF7C3FD216802222271DF
:1043A00021B1204B20480B441B111A54DFF88C809C
:1043B000214C98F81030254601270026227933B386
:1043C000002AFCD1D90744BF03F0FE0388F810305F
:1043D0005A072671F2D5AA68002AEFD0EFF30582BA
:1043E000002AEBD1EFF3108272B6A86880B12B7B64
:1043F00073B941692F73A96001B18B6102B962B6CB
:10440000836846779847267398F81030D6E7FEE71A
:1044100002B962B698F81030D0E700BF0C1AFF1F3F
:10442000D1440000008FFCBF30E400E0141AFF1FED
:10443000FF86930341440000281AFF1F2809FF1F2D
:104440002DE9F0471E4E1F4DDFF880901E4F1A24B5
:104450004FF000082868B38818B102884188521AC2
:1044600013440BB9BDE8F087013C14F0FF0401D1FF
:10447000BDE8F08788B143880288C11801339342B0
:1044800091F808A004D243805046FDF717F9E1E700
:10449000FFF71CFFC5F80080F6E799F8003063B11C
:1044A00072B6B86828B10288B3884168B9609B1AAF
:1044B000B38062B628600028DDD14FF0FF0AE3E741
:1044C0006C1AFF1F681AFF1F1019FF1FC019FF1F6A
:1044D0002DE9F04F2DED028BA44EA54CDFF8ECA298
:1044E00083B04FF0020BA34B1B78002B40F08C8065
:1044F00072B6DFF89092A04DDFF8D482122101232A
:104500002960337062B69D4F72B62B68180648D486
:104510003378002BF3D062B63B78002BF4D098F8B8
:104520000020002AF0D1DA0744BF03F0FE033B70FD
:1045300000225B0788F80020E6D5914B1A68002A14
:10454000E2D0EFF30582002ADED1EFF3108E72B6CF
:104550001868002800F0BC8099F800200092002A1A
:1045600040F0B680D0F814C0864AC3F800C00123DA
:104570001370BCF1000F02D0009BCCF81830BEF1D4
:10458000000F00D162B60023437782680191009347
:104590009047009B89F80030019972B62B68180685
:1045A000B6D5794B00221B68327062B6774A127812
:1045B000134107EE903A0BF1FF3BF8EEE77A1BF060
:1045C000FF0B38EE278A8ED1F6EE007A28EE278A86
:1045D000DFED6F7A6F4BDFED706A93ED0E7A68EE68
:1045E000277A67EEA67AB4EEE77AF1EE10FAC3ED19
:1045F000097A73D503B0BDEC028BBDE8F08FDAF811
:10460000003013F0800306D023681D06F7D5236819
:104610001D06F9D4F3E772B6564A56491278002AB5
:1046200054D05E4A5E4D5F482D685F4F1268006847
:1046300015443A68054478681544BA682844024429
:10464000C2F34E0259485A4D42F4004202603430DF
:104650002D68BA69006815443A6A0544786A1544B9
:10466000BA6A28440244C2F34E025248524D07F53A
:10467000FF2742F40042026007F5FF6700F50020C3
:1046800010302D683A6800681544BA680544F86827
:1046900015443A6928440244C2F34E024748484D43
:1046A00042F40042026034302D683A6A00681544D2
:1046B000BA6A0544F86A15443A6B28440244C2F3C6
:1046C0004E02404842F4004202600B7062B60FE7AF
:1046D000BEF1000F7FF418AF62B615E7D3ED0A6A9A
:1046E00093ED0D7A77EEE67AF1EE476AF4EEE67A2C
:1046F000F1EE10FA0AD593F83C20FF2A3FF47AAF86
:104700003149012081F85E0002440FE0F4EEC77ADF
:10471000F1EE10FA7FF76EAF93F83C20002A3FF4D9
:1047200069AF2949012081F85E00013AB1F85E4085
:1047300081F85D00D2B2602083F83C201A7081F8C5
:104740003B0054B1930943F00C039200032081F81D
:104750003C3081F83D2081F85D001B4803B0BDEC82
:10476000028BBDE8F04FFDF7D9BE00BF901AFF1FC6
:1047700024B00340091AFF1F00B003403809FF1F8F
:10478000301AFF1F341AFF1F10B00340081AFF1F12
:1047900033335340C819FF1F000000393CB00340B9
:1047A00038B0034040B0034044B003402CB0034055
:1047B00058B0034030B0034038B00B402CB00B4031
:1047C00058B00B4030B00B40BC08FF1F24B00B406A
:1047D0002C1AFF1FF0B41A481A4A1B4B1B4D6024B9
:1047E000E121047011701B78194C082B1BD00A2B87
:1047F0001848194922D00C2B0CBF35225D221223F8
:104800002A60236002600B60144F154E154D164C44
:1048100016490022842301203A6032602B60236015
:104820000870F0BC704700F58E200B49083021223B
:1048300013232A60236002600B60E5E73922F7E763
:104840000040074001400740B808FF1F08B0034080
:104850000CB0034008B00B400CB00B4020B003403C
:1048600020B00B4024B0034024B00B40091AFF1FB6
:104870000B460146184600F001B800BF13460A4631
:104880000146022000F07CB8014B1868704700BF59
:10489000680DFF1F70B50F4E0F4D761BB61018BF79
:1048A000002405D0013455F8043B9847A642F9D1BD
:1048B0000A4E0B4D761B00F061FBB61018BF0024AA
:1048C00006D0013455F8043B9847A642F9D170BD93
:1048D00070BD00BF884F0000884F0000944F00005B
:1048E000884F000070B4840746D0541E002A41D07F
:1048F000CDB2034602E0621EE4B3144603F8015B46
:104900009A07F8D1032C2ED9CDB245EA05250F2CF4
:1049100045EA054519D903F110022646103E0F2E2F
:1049200042F8105C42F80C5C42F8085C42F8045C07
:1049300002F11002F2D8A4F1100222F00F0204F0EA
:104940000F041032032C13440DD91E462246043A9C
:10495000032A46F8045BFAD8221F22F0030204322D
:10496000134404F003042CB1C9B21C4403F8011B26
:10497000A342FBD170BC704714460346C2E700BF98
:104980002DE9F047254C2568D5F84841064688466C
:1049900092469946C4B360681F2817DC431C76B161
:1049A00004EB80050122C5F888A0D4F88811824064
:1049B0001143022EC4F88811C5F808911ED00230A8
:1049C000636044F820800020BDE8F087144B03B3F7
:1049D0004FF4C870AFF300800446D0B1D5F8483129
:1049E000002780E88800C5F8484138460123C4F80C
:1049F0008871C4F88C71002EE1D0D1E7D4F88C1105
:104A00000A43C4F88C21DAE705F5A674C5F84841D5
:104A1000C1E74FF0FF30BDE8F08700BF784F0000DE
:104A200000000000024B13B1024800F005B87047C7
:104A300000000000454A0000002301461A461846BF
:104A4000FFF79EBF38B5074D074C2C1BA41005D0AF
:104A5000013C55F8043D9847002CF9D1BDE8384099
:104A600000F098BA0000000000000000844641EA0F
:104A7000000313F003036DD1403A41D351F8043BD6
:104A800040F8043B51F8043B40F8043B51F8043B28
:104A900040F8043B51F8043B40F8043B51F8043B18
:104AA00040F8043B51F8043B40F8043B51F8043B08
:104AB00040F8043B51F8043B40F8043B51F8043BF8
:104AC00040F8043B51F8043B40F8043B51F8043BE8
:104AD00040F8043B51F8043B40F8043B51F8043BD8
:104AE00040F8043B51F8043B40F8043B51F8043BC8
:104AF00040F8043B51F8043B40F8043B403ABDD237
:104B0000303211D351F8043B40F8043B51F8043BD8
:104B100040F8043B51F8043B40F8043B51F8043B97
:104B200040F8043B103AEDD20C3205D351F8043B67
:104B300040F8043B043AF9D2043208D0D2071CBF33
:104B400011F8013B00F8013B01D30B88038060465C
:104B5000704700BF082A13D38B078DD010F00303D2
:104B60008AD0C3F10403D21ADB071CBF11F8013B42
:104B700000F8013B80D331F8023B20F8023B7BE791
:104B8000043AD9D3013A11F8013B00F8013BF9D2BC
:104B90000B7803704B7843708B7883706046704756
:104BA00000ADF9000000000000000000000000005F
:104BB00000000000000000000000000000000000F5
:104BC00000000000000000000000000000000000E5
:104BD0000000004A0000000000000000000000008B
:104BE00000000000000000000000000000000000C5
:104BF00000000000000000000000000000000000B5
:104C0000000000000046C876CE0000000000000052
:104C10000000000000000000000000000000000094
:104C20000000000000000000000000000000000084
:104C3000000000000000006B25D706000000000007
:104C400000000000000000000000007300000000F1
:104C50000000000000000000000000000000000054
:104C60000000000000000000000000000000000044
:104C70000000000000000000000000000000000034
:104C80000000000000000000000000000000000024
:104C90000000000000000000000000000000000014
:104CA000288004404000000004FFFFFFFF050000D3
:104CB0000000031AFFFFFF05050000004A00000086
:104CC00000010000A407FF1F120000000002000006
:104CD0000808FF1F43000000000300000408FF1F36
:104CE0000000000001030904EC07FF1F00000000A2
:104CF00002030904D407FF1F000000000303090496
:104D0000B807FF1F000000000000000000000000C6
:104D1000000000004008FE4340A004404408FE4359
:104D200044A004400018FE4300C004403000FE438D
:104D3000309004403400FE43349004401C18FE437D
:104D40001CC004401018FE4310C004400818FE4365
:104D500008C004400C18FE430CC004400C10FE4375
:104D60000CB004401010FE4310B004401810FE4375
:104D700018B004401C10FE431CB004401410FE4345
:104D800014B004400418FE4304C004400010FE4365
:104D900000B004400008FE4300A004400408FE43A5
:104DA00004A004400C08FE430CA004400808FE4385
:104DB00008A004401418FE4314C004401818FE4311
:104DC00018C004400410FE4304B004400810FE4321
:104DD00008B004406820FE4368D004401400FE433D
:104DE000149004403800FE43389004403C00FE43D9
:104DF0003C9004404000FE43409004404808FE437D
:104E000048A004404C08FE434CA004402808FE4340
:104E100028A004402C08FE432CA004406020FE4340
:104E200060D004406420FE4364D004402010FE4360
:104E300020B004402410FE4324B004402810FE4358
:104E400028B004402C10FE432CB004404400FE4324
:104E5000449004407000FE43709004407400FE4390
:104E6000749004406800FE43689004405008FE437C
:104E700050A004405808FE4358A004405C08FE437C
:104E80005CA004405408FE4354A004402018FE4394
:104E900020C004402418FE4324C004401008FE43F0
:104EA00010A004401408FE4314A004403818FE4328
:104EB00038C004403418FE4334C004403018FE4368
:104EC00030C004403C18FE433CC004402C18FE4354
:104ED0002CC004402820FE4328D004402C20FE4350
:104EE0002CD004400020FE4300D004400420FE43A8
:104EF00004D004400820FE4308D004400C20FE43A8
:104F00000CD004401020FE4310D004401420FE4377
:104F100014D004403480044080000000263AFFFF93
:104F2000FF0206000000253BFFFFFF020600000015
:104F300019000000348004404000000012112208D3
:104F4000300202050702131021072F020205070293
:104F50001800000000000000000000006D040000C8
:104F600089080000850800003D080000790800005D
:104F700059080000410800004009FF1FF8B500BFB4
:104F8000F8BC08BC9E467047254A00003504000066
:044F9000593C000088
:044F9400F8B500BFAD
:084F9800D8F8FF7F01000000C2
:104FA000000000005C4F000000000000E80300006B
:104FB0000000000000600E40A04C00000000000057
:104FC00000000000000000000000000000000000E1
:104FD00000000000000000000000000000000000D1
:104FE00000000000000000000000000000000000C1
:104FF00000000000000000000000000000000000B1
:1050000000000000000000000000000000000000A0
:10501000030000001201100102000040C0168304CA
:1050200077020102030100000C03000000000000F1
:105030000000000000000000000000000000000070
:10504000941AFF1F1603550053004200200053001E
:1050500065007200690061006C00000018035400D4
:10506000650065006E0073007900640075006900DA
:105070006E006F000403090409024300020100C02E
:10508000320904000001020201000524001001059C
:1050900024010101042402060524060001070582FB
:1050A0000310004009040100020A00000007050384
:1050B0000240000007058402400000005C4F000031
:1050C00000000000E803000000000000006006404F
:1050D000344F00000000000000000000000000004D
:1050E00000000000000000000000000000000000C0
:1050F00000000000000000000000000000000000B0
:10510000000000000000000000000000000000009F
:10511000000000000000000000000000000000008F
:1051200000000000000000000A0000005C4F0000CA
:1051300000000000E80300000000000000700640CE
:10514000144F0000000000000000000000000000FC
:10515000000000000000000000000000000000004F
:10516000000000000000000000000000000000003F
:10517000000000000000000000000000000000002F
:10518000000000000000000000000000000000001F
:105190000000000000000000CD3E0000CD3E0000F9
:1051A000CD3E0000CD3E000001000000FFFFFFFFEC
:1051B000000000002C0CFF1F940CFF1FFC0CFF1FB5
:1051C00000000000000000000000000000000000DF
:1051D00000000000000000000000000000000000CF
:1051E00000000000000000000000000000000000BF
:1051F00000000000000000000000000000000000AF
:10520000000000000000000000000000000000009E
:10521000000000000000000000000000000000008E
:10522000000000000000000000000000000000007E
:10523000000000000000000000000000000000006E
:10524000000000000000000000000000000000005E
:10525000000000000000000001000000000000004D
:105260000E33CDAB34126DE6ECDE05000B00000012
:10527000000000000000000000000000000000002E
:10528000000000000000000000000000000000001E
:10529000000000000000000000000000000000000E
:1052A00000000000000000000000000000000000FE
:0C55D00000000000000000004009FF1F68
:00000001FF
