:1000000000000320D101000015390000CD380000A8
:10001000CD380000CD380000CD380000CD380000CC
:10002000CD380000CD380000CD3800001539000073
:1000300015390000CD380000211D0000111D000001
:100040001539000015390000153900001539000078
:100050001539000015390000153900001539000068
:100060001539000015390000153900001539000058
:100070001539000015390000153900001539000048
:100080001539000015390000153900001539000038
:100090001539000015390000153900001539000028
:1000A0005106000045060000153900001539000012
:1000B00015390000153900001539000075120000CF
:1000C000153900009D1100001539000001110000D4
:1000D00015390000651000001539000015390000C1
:1000E00015390000153900001539000015390000D8
:1000F00015390000153900001539000015390000C8
:10010000FD1C0000E91C0000D51C0000C11C000003
:10011000153900004D130000153900001539000095
:100120001539000015390000153900001539000097
:100130001539000015390000153900001539000087
:100140001539000015390000C90F000015390000ED
:100150001539000015390000153900001539000067
:100160001539000015390000390600001539000066
:100170001539000015390000153900001539000047
:100180001539000015390000153900001539000037
:100190001539000015390000250F00001539000041
:1001A0001539000015390000153900001539000017
:1001B0001539000015390000153900001539000007
:1001C00015390000153900001539000015390000F7
:1001D00008B5624B4CF220521A804DF628121A8054
:1001E00000BF00BF102223F80E2CA3F51F43DE3BF7
:1001F0004FF030621A605A4A9A605A4ADA605A4B93
:100200004FF470021A60594B594A1A60594B1A78C8
:10021000120703D51A7842F008021A70564B574954
:10022000AA221A70564A574B8B4204D252F8040F36
:1002300043F8040BF8E7544B544900228B4202D296
:1002400043F8042BFAE75249524A002352F823009C
:1002500041F823000133742BF8D14F4B4F4A8021D2
:1002600003F8011B9342FBD14D4B494A1A604D4B99
:100270008A221A70A3F5805324225A70A0221A7081
:100280009A799507FCD59A79D406FCD4464A937995
:1002900003F00C03082BFAD1444B60221A7002338E
:1002A0001A78802AFCD1404B01221A715D225A71C2
:1002B0009A799006FCD599793B4A4906FBD53C4B87
:1002C0003C4919600021596020231370937903F091
:1002D0000C030C2BFAD1384B384A1A60384A394C87
:1002E000136813F4807303D123604FF4A853136091
:1002F000354B364A1A60002507225D6043F8042C0E
:10030000334AC3F80C2D62B603F008FB22682D4B6C
:10031000D2070CD52F4A30491D60156042F8041CE5
:1003200010221A6003F5805308332C4A1A602C4BB4
:100330001B785B060ED52B4A284B1168994209D1D0
:1003400024492548002323600B6041F8040C102148
:100350002160136003F096FD01F0B4FE0E2005400D
:10036000823F04000100002B88ED00E0002008E03F
:100370000300008502D0074000E00740BC0DFF1FCE
:10038000C04700003007FF1FBC0DFF1F901AFF1F62
:100390000002FF1F0000000000E400E064E400E051
:1003A00008ED00E0005006400040064001E0074034
:1003B000448004400000060204800440C01007008E
:1003C00010D0034014D0034014E000E01FBF02002F
:1003D0000000202004D003407FF14E62A5C3945A50
:1003E00000F007401CE00340FFFFFFFFFFFFFFFF9F
:1003F000FFFFFFFFFFFFFFFFFFFFFFFFFFFFFFFF0D
:10040000FFFFFFFFFFFFFFFFFFFFFFFFDEF9FFFF23
:1004100010B5054C237833B9044B13B10448AFF33E
:1004200000800123237010BDBC0DFF1F00000000E1
:10043000BC470000084B10B51BB108490848AFF392
:1004400000800848036803B910BD074B002BFBD0A0
:10045000BDE81040184700BF00000000C00DFF1F9E
:10046000BC470000BC0DFF1F00000000B0F85E306C
:100470006BB190F85D30202B07D8C218013380F89B
:100480005D30012082F83B1070470123037100208A
:10049000704700BF70B43F4B3F4A986B5C6B01796B
:1004A00011703E4922790A701A6B00790870002A8F
:1004B00046D05968C9688A423ED82168CC8B24044A
:1004C00002F1FF305ED4C0F30E00C883C88B80B247
:1004D000C882996B0968C88B00044BD4C2F30E0024
:1004E000C883C88B002480B212F1FF32C88218BFC3
:1004F00001221C63596B274809680D6800F12C0420
:10050000A5422FD00068C46814F0804F0C680D68B5
:1005100015BF248824780235013544F000440D606D
:100520004463996B1E4B097919701A4912B14A6BD1
:1005300012791A7070BC7047521A1A630122D9E7F7
:100540001968184C0A63D86BCC62CC68066824F032
:100550008044CC603468032583F82D50114623462F
:1005600070BC1847016890F82C00CC6840F000403F
:100570004863D6E7CC8BC2F3080004F47E442043E2
:10058000C883AEE7CC8BC0F3080004F47E4420435C
:10059000C8839BE75408FF1F1F8000401C80004059
:1005A0001B80004000000FFF704700BF90F83830FC
:1005B00090F839209A4286BF1B18187E4FF0FF3002
:1005C000704700BF90F8383090F839209A4205D92A
:1005D0005A1C034480F83820187E70474FF0FF30D3
:1005E000704700BF90F8392090F83800101A704713
:1005F000002070470846114601F0D4BC38B50546C6
:10060000B0F85E0090B195F85D301446C3F1210258
:1006100094420CD805F13B001844224603F0D0FC6C
:1006200095F85D30234485F85D30204638BD0120C3
:1006300014462871EEE700BF014802F0EDB900BF93
:100640003407FF1F014802F0E7B900BF0809FF1F88
:10065000014802F0E1B900BF9C08FF1F2DE9F04FEF
:10066000BE4EF3780022ADF51D7D044632700A2B94
:1006700000F22584DFE813F0CC00CC00F900D500AF
:10068000E7000D011F01370154010B000B000A2B7D
:1006900005D0338EB14AB0EB132F00F00A844FF02F
:1006A000020886F800803379AC4D33444FF0010ED8
:1006B00014AF05F13001384683F839404FF48872A1
:1006C00086F803E003F07CFCB8F1010F40F0FA83F8
:1006D0002B8995F834206A7103B96B81013396F840
:1006E000332033810023FA70B370FB79332B00F091
:1006F000C08100F23781012B00F04282022B40F0D2
:100700008C80042A4FF0000328BF042203A816A9F6
:10071000039303F055FC039F0DF11C093C01A4B2A7
:100720004D460DF12C08204603F004FB05F8010BA3
:100730000134A845A4B2F6D199E80F000CAD0DAC78
:100740002F6084E80F00AE46BEE80F005AAF3C466B
:100750000FC4B279DEF80030236058AC012302F1F7
:10076000010C4FF0330EFE20142186F806C02271D2
:100770006371A37184F807E0A070E1700DF2631358
:100780000DF267164FF6FF7201E013F8011F51409A
:1007900081EA0111C9B2C80080EA012080EA122270
:1007A0009E4282EA1112F0D1228010465FA917F80A
:1007B000013B434083EA0313DBB2DA0082EA0322FF
:1007C00082EA202080EA13131BB298B28F42208065
:1007D000EDD183F04A0181EA0111C9B2CA0082EA6F
:1007E000012282EA102282EA11110CB21A220DF5BE
:1007F000B171284603F0E4FBC4F3072328461C210B
:10080000AC76EB7601F0CEFB0DF51D7DBDE8F08FEB
:10081000FE2800F043830023B3700DF51D7DBDE875
:10082000F08F328E86F83500544084EA0414E4B226
:10083000E30083EA042383EA122383EA14140523E2
:100840003486F370E7E7328E86F83400544084EA49
:100850000414E4B2E30083EA042383EA122383EA64
:10086000141403233486F370D5E7328E86F83300F0
:10087000544084EA0414E4B2E30083EA042383EAE4
:10088000122383EA14140022042334863271F37095
:10089000C1E7328E86F83600544084EA0414E4B28C
:1008A000E30083EA042383EA122383EA1414062371
:1008B0003486F370AFE7328E96F8331086F837003F
:1008C000544084EA0414E4B2E30083EA042383EA94
:1008D000122383EA14143486204B002940F08D82C1
:1008E0000822DA7097E733791C4DF218013382F849
:1008F0003800318E96F833004C4084EA0414E4B298
:10090000E20082EA0422DBB282EA112282EA1414B3
:100910009842337134867FF47EAF0823EB707AE718
:100920000F4A96F83730318ED35C0C484B4083EA3F
:100930000313DBB2DA0082EA032282EA112282EA9E
:100940001313DAB29442338614BF0A230923C37007
:100950003379334483F838405DE700BFD80DFF1F7B
:10096000DC410000652B4CD0662B7FF456AF58ACB1
:1009700000324FF00003237018BF0122204616A951
:1009800003F01EFB744B013BFDD1744D012385F830
:100990005E30B5F85E2085F85D30102385F83B3079
:1009A0002AB10222F92385F85D2085F83C306B4E90
:1009B0003F213046FFF75AFD304601F03DFE684BBF
:1009C000013BFDD1012385F85E30B5F85E2085F846
:1009D0005D30102385F83B302AB10222362386F899
:1009E0005D2086F83C3008215C48FFF73FFD5B48FE
:1009F00001F022FE5B4B22781A700DF51D7DBDE8DB
:100A0000F08F032A4FF0000328BF032216A958A82D
:100A1000ADF860318DF8623103F0D2FA524ABDF878
:100A200060319DF862111170002B00F0338207EEE7
:100A3000903ADFED4E6AF8EE677A86EEA77AB5EE69
:100A4000C07AF1EE10FA07D9DFED497AB4EEE77A11
:100A5000F1EE10FA40F30C82464B196800221A712D
:100A600000293FF4DAAE444B44480B441B111A549E
:100A7000D3E60DF11C080023142A28BF1422404697
:100A800016A9C8F80030C8F80430C8F80830C8F80B
:100A90000C30C8F8103003F093FAD8F800700DF15C
:100AA0000C093C01A4B24D46204603F043F905F879
:100AB000010B0134A845A4B2F6D199E80F000CADA2
:100AC0000DAC2F6084E80F00AE46BEE80F005AAFB1
:100AD0003C460FC4B279DEF80030236058AC0123E5
:100AE00002F1010C4FF0330EFE20142186F806C0EF
:100AF00022716371A37184F807E0A070E1700DF2B8
:100B000063130DF267164FF6FF7201E013F8011F31
:100B1000514081EA0111C9B2C80080EA012080EA8F
:100B200012229E4282EA1112F0D1228010465FA961
:100B300017F8013B434083EA0313DBB2DA0082EA91
:100B4000032282EA202080EA13131BB298B28F425C
:100B50002080EDD13DE600BF60E316000809FF1FCD
:100B600000DD6D00541AFF1F8409FF1F0024744923
:100B70008988884C0C16FF1F008FFCBF30E400E012
:100B800058AC142A4FF0000328BF1422204616A99F
:100B9000589359935A935B935C9303F011FA22682C
:100BA000DFF8C4B2A44F01941501ADB2D9460DF2DD
:100BB00063180DF2731A4FF000469BF80B301A467B
:100BC000002B46D0D80704D59C4AD9F81C101160D8
:100BD0001A46990705D59A4BDBF820109BF80B2095
:100BE0001960530700F10C81140705D5954BDBF80C
:100BF00028109BF80B2019605AB372B69BF80B3083
:100C0000D8071A4608D59049D9F80C200868024040
:100C1000C9F81C200A601A46990709D58B49DBF8E8
:100C2000103008689BF80B200340CBF820300B6095
:100C300053070AD5864B9BF80B201968DBF8143054
:100C40000B408349CBF824300B60140700F1DF80A0
:100C500062B6DBF80030DA68BA4206D07D4A1A6024
:100C60007D497E4ADF6019611A6000210A2000F088
:100C7000AFFFDBF800200623D6625363D36A002B54
:100C8000FCDA01210A20936B00F0A2FF9BF80B30E5
:100C90001946F3B1D80704D5684AD9F81C10116079
:100CA00019469A0705D5664BDBF820209BF80B10F8
:100CB0001A604B0705D56A4BDBF824209BF80B1014
:100CC0001A600C0705D55F4BDBF828209BF80B104A
:100CD0001A604FF41673013BFDD118F8014F59B358
:100CE00072B69BF80B10C8070B4600F19A80890773
:100CF00009D55648DBF8101002689BF80B301140FC
:100D0000CBF8201001605A070AD5514BDBF81410BC
:100D100018684F4A9BF80B300140CBF82410116043
:100D20001B0708D54F4B4F4A1968DBF818300B40AA
:100D3000CBF82830136062B6DBF80030D968B942CE
:100D400006D04449196044484449DF60186119607D
:100D500000210A2000F03CFFDBF800300221DE62B7
:100D60005963DA6A002AFCDA45F08051986BDE623A
:100D70005963DA6A002AFCDA996BDE625C63DA6A2C
:100D8000002AFCDA01210A209B6B00F021FF9BF86E
:100D90000B301A46E3B1DC0704D5284AD9F81C10F9
:100DA00011601A46980705D5254BDBF820109BF8F3
:100DB0000B201960510705D5294BDBF824109BF84F
:100DC0000B201960130703D51E4BDBF828201A608F
:100DD0004FF41673013BFDD10135C245ADB27FF42E
:100DE000ECAE019C23683F2B7FF417AD41F270738A
:100DF000013BFDD101F03CFD0FE50722DA700AE569
:100E0000174BDBF824109BF80B201960ECE6154B10
:100E10001A68DBF818301340124ACBF828301360F8
:100E200016E70948D9F80C2003681340C9F81C30AC
:100E300003600B465BE700BF0760013800E100E09C
:100E400004E100E00CE100E080E100E084E100E08A
:100E500088E100E001403F000760017800003F802A
:100E600008E100E08CE100E05408FF1F0000704240
:100E70005FED026AFEEE007AE7EE267AFCEEE77A94
:100E800017EE902A232A7FF6E7AD2049204800F08C
:100E900085FFE1E51E4800F05FFFBEE4022100226D
:100EA0004FF6FF7386F83200F17086F833203386F0
:100EB000B1E44FF0010882F80080FFF7F4BB4FF077
:100EC000000814AF96F83320FA700021B8F1020F31
:100ED000B170104B14D10122FE2C19709A7004D0FD
:100EE000DA700DF51D7DBDE8F08F4FF6FF7283F8C7
:100EF000038083F833101A860DF51D7DBDE8F08F51
:100F0000B8F1000F7FF4F1AB87E400BF01320000BD
:100F10000C16FF1FD80DFF1F10B5044600F01CFF74
:100F2000204610BD10B4244B5A6894020AD5234AB7
:100F3000D968137892F8710001333F2BC8BF0023A2
:100F400083422CD11C4A9368180202D552681102C0
:100F50000ED45A0209D5184B5B685B0205D51749B8
:100F6000174A002381F8703013605DF8044B704716
:100F7000124A92F8440092F84510C9B2884214D03F
:100F80000131272986BF00200146C8B211440A4C0E
:100F900091F84810C9B2E16082F84500D9E7D0184D
:100FA000C9B2DBB201711370CCE70648044A0024D1
:100FB000012104601160CCE700400C404C12FF1F7F
:100FC000580188435C01884310B4244B1A79920677
:100FD0000CD5234AD97992F8723092F8E1000133A6
:100FE0003F2BC8BF00238342C9B213D11B49CB7822
:100FF000DBB21C0615D4590609D5184B1A795206CE
:1010000005D5174900202C2281F8E000DA705DF840
:10101000044B7047D018DBB280F8741082F872303D
:10102000E4E70A791006E6D50D4A92F8B44092F842
:10103000B500C0B284420ED0411C272986BF0020D3
:101040000146C8B21144054C91F8B810C9B2E1711B
:1010500082F8B500CFE76C22CA70CCE700A00E4042
:101060004C12FF1F10B4244B1A7992060CD5234A58
:10107000D97992F8E23092F8510101333F2BC8BF81
:1010800000238342C9B213D11B49CB78DBB21C06C3
:1010900015D4590609D5184B1A79520605D51749A2
:1010A00000202C2281F85001DA705DF8044B704763
:1010B000D018DBB280F8E41082F8E230E4E70A7975
:1010C0001006E6D50D4A92F8244192F82501C0B2E7
:1010D00084420ED0411C272986BF00200146C8B299
:1010E0001144054C91F82811C9B2E17182F825012B
:1010F000CFE76C22CA70CCE700D006404C12FF1F2D
:1011000010B4244B1A7992060CD5234AD97992F857
:10111000523192F8C10101333F2BC8BF00238342F3
:10112000C9B213D11B49CB78DBB21C0615D45906C2
:1011300009D5184B1A79520605D5174900202C22DB
:1011400081F8C001DA705DF8044B7047D018DBB24B
:1011500080F8541182F85231E4E70A791006E6D596
:101160000D4A92F8944192F89501C0B284420ED093
:10117000411C272986BF00200146C8B21144054CF6
:1011800091F89811C9B2E17182F89501CFE76C220C
:10119000CA70CCE700C006404C12FF1FF0B4334BBE
:1011A0001A7912F0300F22D072B6997D01F0FF0249
:1011B00000292FD062B62E4D95F8C24195F8C36133
:1011C0001846E4B2F6B2631C402BC17928BF002355
:1011D0009E4202F1FF32C9B203D0EF181C4687F8D5
:1011E000C41112F0FF02EED1E4B285F8C2411F49EA
:1011F000CA78D2B2150612D4510609D51B4B1A79FA
:10120000520605D51A4900203C2281F83002DA70D6
:10121000F0BC70474022D9795A7462B6E7E70B797F
:101220001C06E9D5124D95F8044295F80532E4B252
:10123000DBB29C4202D10EE0A3420CD00133282B3A
:1012400028BF0023E8180E7990F80802C0B2C871D0
:10125000087D0728F0D9DBB2044985F805320B79FF
:10126000180644BF7C23CB70C6E700BF00B0064021
:101270004C12FF1FF0B4334B1A7912F0300F22D00A
:1012800072B6997D01F0FF0200292FD062B62E4D73
:1012900095F8314295F832621846E4B2F6B2631C12
:1012A000402BC17928BF00239E4202F1FF32C9B210
:1012B00003D0EF181C4687F8341212F0FF02EED16B
:1012C000E4B285F831421F49CA78D2B2150612D469
:1012D000510609D51B4B1A79520605D51A4900202B
:1012E0003C2281F8B802DA70F0BC70474022D9790C
:1012F0005A7462B6E7E70B791C06E9D5124D95F8EA
:10130000744295F87532E4B2DBB29C4202D10EE031
:10131000A3420CD00133402B28BF0023E8180E79DC
:1013200090F87802C0B2C871087D0728F0D9DBB206
:10133000044985F875320B79180644BF7C23CB70BD
:10134000C6E700BF00A006404C12FF1F2DE9F04F7A
:10135000DFF82093DFF820A385B049E0B74E9F085F
:1013600006EBC708013DD8F8042003F00803EDB2EE
:10137000A2F1080003F0FF04002B40F01B8156F897
:1013800037301B0C99B222F8081C002B00F00981A1
:10139000AB4B22F8064C42F8044C53F82520002AA7
:1013A00000F08581DFF8ACB2AB000BEB0304D4F89E
:1013B000D8426060A34C0BEB030234F81530C2F83E
:1013C000D802194424F8151000F0CCFD002800F0D4
:1013D00067819D4A9D4B18F0080F00F1080018BF67
:1013E0001346C8F8040046F83730082389F800305F
:1013F00099F80040E4B261071DD5954B1B78BBB14D
:10140000944991F8C42202F0FF0332B1013BDBB2F0
:1014100081F8C432002B00F0C3838F4D2A7802F08C
:10142000FF032AB1013BDBB22B70002B00F02681B9
:10143000042389F8003004F0080303F0FF02002BB6
:1014400000F0E5809AF80030DBB21D0986D19B08D8
:10145000DFF8E88158F8332008EBC300C2F38302B9
:10146000013A40680C2A00F28B80DFE802F08D8D93
:101470008989898989894B89898907000568DFF805
:10148000D4B14068704E48F83360CBF8CC0240F2DB
:101490008163A8B20024CBF8C85298424FF00105EE
:1014A000C8F81040CBF8D042C8F818408BF8D45296
:1014B00000F20381B0F5D06F80F0DE82B0F5817F5D
:1014C00000F0C88200F25781802800F0378282281D
:1014D00040F09382BBF8CC3203F07F03042B00F280
:1014E0008C825E488BF8BC429B0018448BF8BD424E
:1014F00003789C0740F130838BF8BC520BF52F70BA
:10150000022522E2DFF84CB1DBF8D0325BB3BBF846
:10151000EA029BF8E8529BF8D4424028064645F080
:10152000020728BF402685F00105002C84F0010445
:101530008BF8D442A0EB06008BF8E85208BF882451
:1015400008EBC70518BFC82480B244EA06446B60A4
:10155000ABF8EA02334448F8374010B9402E18BFC0
:101560000023CBF8D032BBF8C8323A4AB3F5A06FAB
:1015700006D1002192F8CA3282F8C912384A137093
:10158000384A0123137030E7DFF8C8B0BBF8C852FF
:1015900042F22104A54200F055812B4A48F833203D
:1015A000EEE7294A294B18F0080F18BF134646F8F2
:1015B00037301AE700F04AFC2B4A2C4952F8253004
:1015C000002B00F02F8158684C5D42F8250003F194
:1015D0000802C8F80420032C05D8DFE804F0120F35
:1015E000150204224A551A8818F0080F0CBF8823E8
:1015F000C82343EA024346F83730F6E602224A554A
:10160000F1E703224A55EEE705224A55EBE7E007EA
:1016100000F15A81210600F18781A20706D5144AFC
:10162000144913780220DBB213700870E30602D568
:10163000104B10221A7005B0BDE8F08F0000FF1F9C
:10164000DC15FF1FEC15FF1FC8004000880040009C
:10165000D815FF1F4C12FF1FD915FF1FC0200740D0
:1016600098200740942007401816FF1F1416FF1FEC
:10167000882007408020074090200740BF4B1B7800
:1016800003F0FF07002B7FF4D3AEBD4E3068002877
:1016900000F05C824388038001F076FB3760C7E688
:1016A000B84A46F837001378013313709DE643F8C3
:1016B0002500DFF8FCB2AB007CE642F22103984241
:1016C00000F0AC8000F2EC80B0F5086F00F084818F
:1016D000B0F5106F40F09181AB4B9BF8CA02AB4D57
:1016E0001870042402E00134142C0CD058F8343063
:1016F0001A06F8D505EBC40301345868083800F021
:10170000A5FB142CF2D1A24A0092A24AA24B01924C
:10171000A24AA34CCDF80CB0002635461F4693468E
:101720000294386828B1446800F090FB2046002CF1
:10173000F9D1009B3D6018689A4B43F8265028B1B8
:10174000446800F083FB2046002CF9D1009A9BF8F6
:1017500000301560019A42F8045B0192029A023B44
:1017600022F81650032B00F2A481DFE813F0E70102
:101770009E01E7019E0140F20233984240F033811E
:10178000BBF8CC3203F07F03042B00F23681BBF8A8
:10179000CA42002C40F0318183489B0018440378F2
:1017A00043F00203037000231E461F461A461846E4
:1017B0009BF8E8E24EF0020C08EBCC01002D4860EB
:1017C0000CBF8820C82007438EF0010048F83C7009
:1017D0008BF8D4428BF8E8026C4FDFF8D4C1002BB1
:1017E00040F01281402A19D140F0020008EBC001FC
:1017F000664F4E601904002C40F0198141F08801B9
:101800008BF8D4528BF8E8E247F830101E44402B96
:1018100004D10023CBF8D062ABF8EA32634A01234B
:101820001370ADE64B5D032B00F20D8101A252F85F
:1018300023F000BFEB130000EB1300001D190000A4
:1018400023190000BBF8CC4284B90BF2EB24C61D6F
:1018500010F8012B04F8012F8642F9D1DBF8EC02D5
:10186000534C862804BF0F2084F8C4029BF8E8423A
:101870009BF8D40244F0020508EBC50684F001048D
:1018800000288BF8E8424FF00004746080F00100FB
:101890000CBF8824C82448F835408BF8D4027CE675
:1018A00042F22123984240F0A480BBF8CC32002BB6
:1018B0007FF479AF3F4E404C3668404826609BF835
:1018C000CA4204701C466EE7394938482F4B81F8EC
:1018D000E822022606703A4CDFF8CCC01C6001F505
:1018E0003D7601F54D715E60364D9C60D9601A61A0
:1018F0009A610D238CF80030DFF8D8E0324F334E78
:10190000334CFF232B7001219F258EF800303A7055
:1019100033702570017005B0BDE8F08F00234B5582
:1019200063E501234B5560E51F492A4B80220D20BA
:1019300008701A70A2077FF579AE70E68BF8BC428A
:101940008BF8BD4202250BF52F70BBF8CE42184B29
:10195000AC4280F01B8193F8E8E24EF0020C08EBF9
:10196000CC03402C224628BF402258608618A31A78
:10197000170401250024C82025E700BFD015FF1F4C
:10198000D415FF1FCC15FF1FD815FF1F0000FF1F28
:101990001816FF1F2816FF1FDC15FF1F1416FF1F48
:1019A000EC15FF1F2415FF1FC0200740942007409F
:1019B0004C12FF1F3816FF1FC815FF1FC415FF1F4D
:1019C0008800400088200740982007408C2007406E
:1019D0008420074080200740724B1B788BF8BC3274
:1019E0000BF52F70B1E7B0F5A06F06D100240125EB
:1019F000D9E642F221339842F8D06B4B0F221A708D
:101A00006A4A01231370BBE5402B7FF6EDAE40F030
:101A1000020007EBC0014E609CB165498CF8D452BE
:101A20008CF8E8E2403B403647F83010F2E641F0EF
:101A3000C8018BF8D4528BF8E8E21E4447F8301006
:101A4000E5E65C49EAE718F0080F0CBF0223032320
:101A50004B55CAE4BBF8CC3203F07F03042BCCD83F
:101A6000BBF8CA42002CC8D14F489B0018440378E9
:101A700023F00203037096E6BBF8CA52BBF8CC729F
:101A80004D4B4E484FF4807404E018690028B4D0E0
:101A900033F80C4FAC42F8D15A88BA42F5D1240A37
:101AA000032C0CBF05781D894FE74FF001038BF81D
:101AB0000030009B01360433042E07F10407009325
:101AC0000BF1010B7FF42DAE3D4B3E4FDDF80CB01A
:101AD0003D4D0020187003074FF0010607F8040B76
:101AE00014D4B40044F0020244F00304002348F884
:101AF000323048F83430354B9F4206F1010620D091
:101B000015F8010F07F8040B0307EAD500F02AFACD
:101B100098B308EB4613B40008305860254B48F8DA
:101B2000343000F01FFAF0B144F0010308EBC302B7
:101B3000083050601E4A48F83320D3E78BF8005035
:101B4000B7E79BF8D45285F001042CE600F00AFABE
:101B500030B101F019F96BE402250BF52F70F4E6B2
:101B600001232B7064E4164B44F001021B7848F803
:101B70003200134A01331370B4E7114B104A1B783B
:101B8000B400013348F834001370CAE7402D2A46E8
:101B900028BF4022AB1A170486180024012507E647
:101BA00000BE00BFD815FF1FC0200740942007408B
:101BB000C800400088004000FC420000A007FF1F52
:101BC000CC15FF1FC420074050430000D42007401D
:101BD00010B4114B53F8302092F8804234B10123F5
:101BE00079B182F880305DF8044B704703EBC00395
:101BF0005B681A6851B922F002021A605DF8044B62
:101C0000704782F800315DF8044B704742F00302E0
:101C10001A605DF8044B7047FC4400002DE9F8435E
:101C2000054672B6214E224B22491B68326809686C
:101C300062B6490102D5322B88BF0132A5B3C3F584
:101C40002F334FF47A71DFF86890DFF868801A4F0D
:101C5000B42403F21F33B3FBF4F301FB023472B676
:101C6000D9F800103268D8F800E062B6C1F52F3319
:101C700003F21F339B08A7FB03031EF0806FC4EB26
:101C800093034FF47A7002D0322988BF013200FBEF
:101C90000233B3F57A7F04D3013D05D004F57A749D
:101CA000DDE700F0D7FFDAE7BDE8F8833816FF1F5D
:101CB00018E000E004ED00E0176CC116704700BFAB
:101CC000024A034B01211160DB6818473C71034055
:101CD0004408FF1F024A034B012111609B6818470B
:101CE0002C7103404408FF1F024A034B012111607D
:101CF0005B6818471C7103404408FF1F024A034BEE
:101D0000012111601B6818470C7103404408FF1F34
:101D1000024A136801331360704700BF3816FF1F73
:101D200038B5EFF3108272B60A4C206878B10025FE
:101D30004369236003B19D6102B962B64577836848
:101D40009847EFF3108272B620680028F0D102B9EC
:101D500062B638BDC015FF1F0168A9B10B4BF0B4C6
:101D60000B441B110A4E0B4F0B4D46F8237003F129
:101D7000300202F01F0401235211A340002445F851
:101D800022308C600460F0BC704700BF008FFCBF45
:101D90004408FF1FBD1C000080E100E00368F0B4B0
:101DA000FBB1002501249D60DC601B4C1A601C44C3
:101DB000241104F130056A11032692009E60174F2A
:101DC0000679174B47F8241002F1604202F5614290
:101DD00005F01F05012000FA05F5E6541560F0BC7A
:101DE0007047104C236843F40003236000BF0E4B80
:101DF0000E4DA4F58734A4F59E7401261E6023467B
:101E000004609C68002CD0D01033AB420360F8D142
:101E1000002303601846E2E7008FFCBF4408FF1F61
:101E200030E400E03C800440007003404071034017
:101E3000044B054A1B6890881BB11A885B88D31A2B
:101E400018447047F415FF1FEC15FF1F2A4A2B4B4F
:101E5000821AA3FB02231B090B2B11D8F0B5284AC9
:101E6000117B11B12749097859B972B626484FF04C
:101E70000041026D21FA03F31A43026562B6F0BD18
:101E8000704772B6002501218C002D071F4EDFF828
:101E900088E044F0010707D55EF83450DFF878C0D9
:101EA0008DB15EF83740D4B10131052907D016F85D
:101EB000015F8C002D0744F00107F5D5ECE762B611
:101EC00000211173D1E7137B114D0CEB4111083048
:101ED000013B486013734CF8345062B6F0BD137B7D
:101EE0000C490CEBC7040830013B606013734CF8DD
:101EF000371062B6F0BD00BFD003FF1F398EE33844
:101F0000C015FF1FD815FF1F4408FF1F50430000D6
:101F100088004000C80040000000FF1F38B50F4D8A
:101F2000286878B143880288C118013393420C7A3B
:101F300002D24380204638BDFFF788FF00232046A9
:101F40002B6038BD064B1B7823B100F045FE28609E
:101F50000028E7D14FF0FF3038BD00BFF415FF1F58
:101F6000D815FF1F72B60D48026DB2FA82F30B2B23
:101F700010DC4FF00041D94022EA0102026562B64E
:101F8000074803EBC303DB00C2180021C150104611
:101F90005160704762B60020704700BF4408FF1FC1
:101FA000D003FF1F2DE9F04FDFF80CA183B0012310
:101FB0008AF80030019169B3DFF800813A4F019E41
:101FC0008346D8F80000A0B3384D4188C1F14004E1
:101FD000B44228BF344601EB040E00231FFA8EFEE4
:101FE0006B73361BA0F802E000F1080354B101390D
:101FF0000B445C441BF8011B03F8011FA345F9D1F6
:10200000B0F802E0BEF13F0F0BD8294B0521197043
:10201000002ED6D1019800238AF8003003B0BDE825
:10202000F08F4023038000F0AFFE0023C8F800309B
:10203000EBE73B78C3B11F4CDFF884901B4D72B6C1
:10204000D9F80C306BB300215B680131002BFBD158
:1020500062B6072910D9013C1CD06B7BD3B900F0C4
:10206000F9FD3B78002BEAD100234FF0FF308AF8CE
:10207000003003B0BDE8F08F4FF001038AF8003064
:10208000FFF770FFC8F8000000289ED10A4B013C02
:102090001870E2D101234FF0FF306B7303B0BDE83D
:1020A000F08F1946D4E700BFD815FF1FC015FF1FDA
:1020B000D915FF1F21480100D015FF1FD415FF1FA0
:1020C0001816FF1FA84BA94A2DE9804801244FF498
:1020D000A27582F880421D601A6822F020021A6000
:1020E000214683B00220FFF773FDA14BA14A82F87D
:1020F00080421D601A68A04D22F0200221461A601D
:102100000A20FFF765FD9D489D4A04682F4640F26E
:10211000EE2613783BB12B79DB0704D50368B96849
:102120005B1A0E2B08D8036811781B1B002900F0DE
:10213000EE81B3F5FA6FECD9DFF868A29148924DC1
:10214000924C00F0D1FDDAF81430914893E8060083
:102150000E6832430A60DAF810208E491560D460A8
:10216000106111609AF819108B4A8C485C180C3178
:1021700094F82C4053F8215002EBC40149680D60DB
:102180009AF818105C1803EB8101247ECD6902EBEC
:10219000C40149680D609AF81A105C1803EB8103BA
:1021A00094F84040596C02EBC4025368196000F087
:1021B0009BFD9AF81B30EBB1DE0703D5784BDAF8BC
:1021C0002C201A609AF81B30764A9D0702D5764B70
:1021D000126B1A609AF81B30724A5C0702D5734B77
:1021E000526B1A609AF81B306E4A180702D5704B72
:1021F000926B1A606F48DFF8ACB1DFF8E891DFF856
:10220000E8816D4F6D4E6E4D00F06EFD00249AF822
:102210001B308BB372B69BF81B30D90706D53268DA
:10222000DBF81C301340CBF82C3033609AF81B30AD
:102230009A0706D53A68DBF820301340CBF83030E7
:102240003B609AF81B305B0708D5D8F80020DBF814
:1022500024301340CBF83430C8F800309AF81B30E3
:10226000180708D5D9F80020DBF828301340CBF840
:102270003830C9F8003062B6DAF81030DA68AA42AD
:1022800006D0504A1A605049504ADD6019611A6000
:1022900000210A20FFF79CFCDAF810304FF00041D3
:1022A0000322D9625A63DA6A002AFCDA4FF000414D
:1022B00044F08052986BD9625A63DA6A002AFCDAD9
:1022C0004FF000410022986BD9625A63DA6A002A03
:1022D000FCDA9A6B019201210A20FFF779FC9AF847
:1022E0001B30019AEBB1D90703D52D4BDBF82C102D
:1022F00019609AF81B309B0703D52B4BDBF8301085
:1023000019609AF81B30580703D5284BDBF83410B6
:1023100019609AF81B30190703D5254BDBF83810E4
:102320001960D0B21021013400F0ECFC00F0CCFCBC
:10233000102C7FF46CAF264B1A46013AFDD11A4699
:10234000013AFDD11A46013AFDD1013BFDD1214CA4
:1023500000F08EFA204800F0C7FC204A20492046B1
:10236000FFF71CFD42E000BF00C004400018FE4320
:1023700010B004401010FE43C015FF1F3816FF1F99
:10238000D815FF1F7444000001401F0001100038E1
:102390000110007800001F80FC4400008044000011
:1023A00000E100E04408FF1F04E100E008E100E074
:1023B0000CE100E09844000084E100E080E100E0EE
:1023C0000760013801403F000760017800003F804E
:1023D000808D5B000416FF1FA4440000FF8693035A
:1023E000DD3C00008CE100E088E100E02168012292
:1023F000227121B15F4B60480B441B111A545F4C92
:10240000012384F85E30B4F85E2084F85D30302318
:1024100084F83B302AB10222062384F85D2084F838
:102420003C30564800F008F94FF41673013BFDD1DB
:1024300094F8392094F8383000219A4203F10100D1
:1024400007D0FAD9C3B29A424FF0010103F101005B
:10245000F7D100295FD1494D04222846182100F008
:102460005BFD042864D00025454800F03DFC28466B
:1024700000F080FC812000F063F9044600F07AFC53
:10248000E2074FD4A30749D542F6E063013BFDD1F3
:10249000822000F055F9F22000F052F920F0C0241B
:1024A00024F4400444F0404500F064FC45F48045C9
:1024B000204600F05FFC284600F05CFC41F270749E
:1024C0002946F22000F080F92346013BFDD1F2209D
:1024D00000F036F900F04EFC013CFDD100F0A6F909
:1024E0000221EA2000F00EFC00F0EEFB0221F020B9
:1024F00000F008FC00F0E8FBF22000F021F900F009
:1025000039FC204800F0F0FB00F0A4FBFCE7B342EC
:102510007FF6FFAD10E684F838209CE71A4800F0FB
:10252000E3FBB1E724F00101812000F04DF9A9E7B8
:10253000002095F8383095F8396018220546E118E2
:102540009E428CBF097E4FF0FF3101FA02F103F188
:102550000107A2F1080284BFFBB2012012F1080FAB
:1025600045EA0105EBD100283FF47EAF84F838300E
:102570007AE700BF008FFCBF30E400E09C08FF1F3B
:10258000B8440000D4440000C0440000FFF750BC31
:1025900010B5114C60680123237028B140880023D6
:1025A0002370C0F1400010BD237A13B900202070C1
:1025B00010BD72B6094BDB6863B15B680130002B5C
:1025C000FBD162B60728F1D8FFF7CCFC6060002889
:1025D000E4D1EBE71846F4E7D015FF1F1816FF1FEC
:1025E00070B50D4C237A6BB165680126267055B124
:1025F00000266B88667228462B8000F0C5FB66605B
:102600000023237070BDFFF7ADFC18B1657200F0B8
:10261000BBFBF5E76672F3E7D015FF1FFFF77EBC43
:1026200000B583B002A800F8011D0121FFF7BAFC34
:1026300003B05DF804FB00BFF0B503691222DA7045
:102640000269937803F0200385B00446002B5DD027
:10265000B4239370394922690B680193019D164692
:1026600005E00B680093009B5B1B042B40D8D378DC
:1026700003F0200303F0FF00002BF2D094F85D304C
:10268000002B2ED000274FF0020EE31993F83B30B9
:1026900013710B680393039E206907E09B060DD519
:1026A0000B680293029B9B1B052B28D8C378DBB2D7
:1026B00003F0020202F0FF05002AEFD080F803E0E9
:1026C0002669F378DBB2DD0632462DD49D062BD584
:1026D00013F001032DD1013794F85D00FFB2B84229
:1026E000D3D8184680220023B27084F85E3004E00C
:1026F0009070236980229A70042005B0F0BD857027
:102700002369802204209A7005B0F0BD03F0FF0514
:1027100000F06CFB10B9042005B0F0BD236984F80B
:102720005F50B0229A7095E78023B3702669042029
:10273000D8E7002F14BF03200220D3E73816FF1F6D
:10274000F8B5204C012384F85E30B4F85E2084F89C
:102750005D303023014684F83B302AB10222102339
:1027600084F85D2084F83C301648FDF77FFE15485C
:10277000FFF762FF4FF41673013BFDD118210422CD
:10278000104800F0C9FB002694F8397094F838100E
:102790003046182362188F428CBF127EFF2202FA45
:1027A00003F201F10105A3F1080384BFE9B2012698
:1027B00013F1080F40EA0200ECD106B9F8BD84F825
:1027C0003810FBE79C08FF1FF0B5174A012482F878
:1027D0005E4083B0B2F85E508DF807104FEA112EBC
:1027E0000F0C0B0E302601468DF806E08DF80570B3
:1027F0008DF8043082F83B6082F85D402DB10220F4
:10280000502382F85D0082F83C300748FDF72EFE29
:1028100004220DEB02010448FDF7F0FE0248FFF729
:102820000BFF03B0F0BD00BF9C08FF1F08B50F4BA6
:10283000012283F85E20B3F85E1083F85D20302219
:1028400083F83B2029B10221802283F85D1083F8B0
:102850003C200648FFF7F0FE4FF41673013BFDD114
:102860004FF000718220BDE80840ADE79C08FF1FD3
:10287000F8B50B4F202404F11006B6B23D462046B1
:1028800001F058FA0134A4B2A64205F8010BF6D1C2
:10289000B6F5806F07F110073446ECD1F8BD00BFE4
:1028A0007416FF1F0023426980F8383080F83930F1
:1028B00080F85C3080F85D3080F85E3080F85F3002
:1028C00006CA30B40C684366224383660A60026914
:1028D00018499370426990F86130146813441D7A66
:1028E0005B7B01EBC5051B026D6803F4E06343F0FD
:1028F00064032B6090F8623013449D7CDB7D01EB18
:10290000C5011B02496803F4E06343F064030B60F4
:1029100021685368194205D003692C225A70036953
:1029200004229A71036920225A71036980229A70E5
:1029300030BC7047FC44000043690CCB12681A425B
:1029400005D003691C225A70036904229A717047EA
:1029500070B490F8613045692B441E7A8E420AD0DB
:10296000EC1D002314F8012FFF2A04D08A4204D062
:102970000133052BF6D170BC704795E80600096855
:10298000114211D00A4901EBC6061D4472680024A9
:1029900014602C7A6A7B01EBC401120202F4E0623B
:1029A000496842F064020A6080F86130E3E700BFE2
:1029B000FC44000070B490F8623045692B449E7C62
:1029C0008E420BD005F11104002314F8012FFF2AC9
:1029D00004D08A4204D00133052BF6D170BC704775
:1029E00095E806000968114211D00A4901EBC606B4
:1029F0001D44726800241460AC7CEA7D01EBC401C4
:102A0000120202F4E062496842F064020A6080F84F
:102A10006230E3E7FC44000038B50269D478E4B2E0
:102A2000E106054624D51023D37063061FD504F0B4
:102A3000040404F0FF03002C5AD042496A6E0023BC
:102A40008B7285F85D30002A66D0904795F85D302E
:102A5000002B61D02B69D0229A702B6995F83B200E
:102A60001A712B69012285F85C200222DA7038BDC8
:102A700004F0400303F0FF00002BD8D19379DBB2C0
:102A800003F0600160294ED0937803F0100303F047
:102A9000FF01B3B114F0010437D195F85C3095F81B
:102AA0005D1099424BD9591C2B4485F85C1093F862
:102AB0003B3013712B69D0229A702B690222DA7095
:102AC000D5E785F86010937943F0200393712B6963
:102AD00095F839101A791F29D2B2C6D81948807AC8
:102AE0000028C2D06818013185F839100276BCE799
:102AF0002A6985F83930C02393702B69114A1979F6
:102B0000012191720222DA70B1E7C02393702B6920
:102B10001A790222DA70AAE70122002385F85D20E3
:102B200085F83B3096E703F0DF039371AB6E23B17A
:102B300085F8380095F8390098472A69A4E7147198
:102B4000B8E700BFD015FF1F10B407EE900A214C64
:102B5000B8EEE77A234604F57471022203E0994245
:102B600002F1010222D0D3ED0D7AF4EEC77AF1EE34
:102B700010FA03F11003F2DD04EB021292ED016A88
:102B8000D2ED026AD2ED037A37EE467AE7EE267A84
:102B9000FDEEE77A17EE900A002817DB6FF07F430F
:102BA0009842A8BF18465DF8044B704794EDFD6A43
:102BB000D4EDFE6AD4EDFF7A37EE467AE7EE267A58
:102BC000FDEEE77A17EE900A0028E7DA00205DF8BC
:102BD000044B70475416FF1F72B6084B586950B12A
:102BE00001881A8C10B4521A44685C611A8462B667
:102BF0005DF8044B704762B6704700BFD015FF1FE9
:102C000010B5094C237A73B1606A40B1FFF71EF921
:102C100000236362FFF7E0FF28B1FFF717F9FFF722
:102C2000DBFF0028F9D110BDD015FF1F10B5084CEF
:102C3000606A18B143881844007A10BD237A23B122
:102C4000FFF7CAFF60620028F4D14FF0FF3010BDDB
:102C5000D015FF1F1A4A1378ABB170B5194C94F810
:102C6000281079B9D90744BF03F0FE03137000227E
:102C70005B0784F82820134A04D5D36A13B1EFF315
:102C800005830BB170BD7047EFF3108172B6D06A47
:102C900010B192F830301BB10029F3D162B670BD8B
:102CA0004569D562012682F8306005B1AB6101B992
:102CB00062B6002545778368984784F83050E1E78D
:102CC0009808FF1FD015FF1F10B5022482B02246BE
:102CD00001A8044901F074F9214601A8FFF762F93F
:102CE00002B010BDF844000010B5044601F008FA27
:102CF00001462046FFF756F90446FFF7E5FF20445A
:102D000010BD00BF70B58AB059B3012908BF0A21B0
:102D100008B3212400E0F4B2B0FBF1F501FB15008B
:102D2000C3B2092803F1300298BFD3B20AAA88BF00
:102D30003733224488BFDBB2661E02F8243C2846A3
:102D4000002DE8D12046C4F1220101AB1844FFF761
:102D500029F90AB070BD30238DF8253001212120DA
:102D6000F3E70AAB012103F8240D1846FFF71AF91F
:102D70000AB070BD10B50221FFF7C4FF0446FFF78B
:102D8000A3FF204410BD00BF72B6154AD37C032BAD
:102D90001CD8DFE803F015120218124B0521D1747C
:102DA000018813F0080F14BFC8228822083042EAB5
:102DB000014258601A6062B6704702210A4BEEE782
:102DC0000321084BEBE70421074BE8E7136A0449AA
:102DD00023B10B6B5860106362B670470862FAE764
:102DE0000416FF1F9000FF1F9800FF1F2DE9F04FF2
:102DF000474FDFF820917B6B026983B00646019351
:102E0000DDF8048000214FF49675D3789B0677D5C2
:102E10007B6B0093009BC8EB03030F2BF5D949B1E3
:102E2000102BF2D000209070336980229A7003B08A
:102E3000BDE8F08F726996F8613013441A7A3F2A20
:102E400062D809EBC202DFF8CCB09368506880F812
:102E500080121960726996F8613013449C7C3F2C93
:102E60000DD80BEBC40301215A689B6882F88012CD
:102E70004FF4A2721A601A6822F020021A604FF012
:102E8000090A3F2C4FF00001204601D8FEF7A0FEB2
:102E90002B46013BFDD13F2C4FF00101204601D8CC
:102EA000FEF796FE2B46013BFDD1BAF1010AE8D1AF
:102EB000706996F8611001444FF416720C7A4B7BDE
:102EC0000BEBC4011B02896803F4E06343F0640365
:102ED0000B6096F862300344997CDB7D0BEBC10BF1
:102EE0001B02DBF8081003F4E06343F064030B609B
:102EF000013AFDD13269D3789B064FF0010187D4A6
:102F0000012003B0BDE8F08FDFF808B0A6E700BFEE
:102F10000416FF1FF8440000F0B5056900231226CF
:102F200080F8383080F83930EE70D0F810E09EF834
:102F3000023003F0200389B004460F461646002BEA
:102F40003ED0B4238EF802306C482269436B07935D
:102F5000079905E0436B0693069B5B1A042B28D860
:102F6000D37803F0200303F0FF05002BF2D07B00A1
:102F700043F00103DBB21371436B0593059922699A
:102F800005E0436B0493049B5B1A052B11D8D3789F
:102F900003F0020303F0FF05002BF2D00227D770E5
:102FA0002369DD7815F0110516D1CEB980229A700B
:102FB00003E09570236980229A70284609B0F0BD1D
:102FC00003F0FF05FFF712FF0028F6D0236984F80D
:102FD0005F50B0229A70B7E780229A700025ECE724
:102FE000012E71D0A0229A7021690B79AE464FF064
:102FF000A80C436B0393039D05E0436B0293029B74
:103000005B1B052B4AD8CB7803F0020303F0FF02C9
:10301000002BF2D0CF702169CB78DBB2DD060A46F7
:1030200058D49D0656D5013EF6B2012E47D0BEF1CA
:103030001F0F3BD90B79012EDBD1436B0193019D0F
:1030400005E0436B0093009B5B1B052B44D8D378B2
:1030500003F0020303F0FF01002BF2D00223D37030
:103060002269D378DBB2D90638D49B0632D5B02397
:103070009370BEF11F0F23693DD804EB0E0219793E
:1030800011760EF1010E5FFA8EFE00BF00BF00BF89
:1030900080229A70754684F839E08EE78A70236939
:1030A00080229A70754684F839E086E704EB0E03B7
:1030B0000D791D760EF1010E5FFA8EFEBBE781F8E9
:1030C00002C021690A46B2E7A8229A702269AE4678
:1030D0001379B2E7754670E79170E0E710214FF47D
:1030E0009673D170013BFDD12269937803F0F70309
:1030F0007546937061E71A79C7E700BF0416FF1F92
:103100002DE9F843334A344B344E354CDFF8EC802C
:10311000344F01254FF4A27982F88052C3F8009011
:103120001A6822F020021A6029460A20FEF750FD94
:103130002D4B2E4A82F88052C3F800901A6822F074
:1031400020021A6029461B20FEF742FD284B294A1F
:1031500082F88052C3F800901A6822F020021A60A8
:1031600029461A20FEF734FD2348FFF7BDFD3046FF
:10317000FFF798FB30461221FFF7EAFB1321304698
:10318000FFF718FC06F16C053046FFF7D5FBFFF79B
:103190004DFB2846FFF786FB28462621FFF7D8FB84
:1031A00028462521FFF706FC2846FFF7C5FB002629
:1031B00080254246394620462660257100F050FEA3
:1031C0004246394604F10800A6602573BDE8F8437D
:1031D00000F046BE1010FE4310B004409C08FF1FD4
:1031E0000416FF1F190F00003C9004403C00FE43F2
:1031F000389004403800FE43884700003007FF1F26
:103200002DE9F043D24D95F80080ADF51B7DB8F166
:10321000000F40F0CC81CF4C012384F85E30B4F82D
:103220005E2084F85D30302384F83B302AB10222DE
:10323000082384F85D2084F83C30C648FFF7FCF989
:103240004FF41673013BFDD194F8391094F83830DF
:103250000020994203F1010207D0FAD9D3B2994272
:103260004FF0010003F10102F7D1002840F0048380
:10327000B84E042230461821FFF74EFE042800F015
:103280004E826E68B34A012384F85E30B4F85E1053
:1032900084F85D30302384F83B3029B102210723C4
:1032A00082F85D1082F83C30AA48FFF7C5F94FF468
:1032B0001673013BFDD194F8391094F83830002092
:1032C000994203F1010207D0FAD9D3B299424FF0E3
:1032D000010003F10102F7D1002840F0D0829D4F98
:1032E000042238461821FFF717FE042800F0ED816C
:1032F000AF68B8F1000F40F08180974B93F80090D1
:10330000B9F1010F12AC00F00181C0F03782B9F1C0
:10331000020F59D13046FFF717FC0DF1200888E85D
:10332000C10098E80700AB7C0DF1500E8EE8070055
:103330005E1CFE22992023710C210123AE74A27021
:103340006371A371E071E1700DF14B030DF14F0555
:103350004FF6FF7201E013F8011F514081EA01119D
:10336000C9B2C80080EA012080EA1222AB4282EA98
:103370001112F0D12280104617A91EF8013B4340DC
:1033800083EA0313DBB2DA0082EA032282EA202214
:1033900082EA13131BB298B28E452080EDD183F0E0
:1033A000D70181EA0111C9B2CA0082EA012282EA88
:1033B000102282EA111109B28EB2370A1225217544
:1033C00067752A46142407E0E278268806321546F7
:1033D000370A00240DF120080DF14A01404600F0A3
:1033E000EFFD08EB050308F80560214640465F70D5
:1033F000FEF7D8FD0DF51B7DBDE8F083574BAA7C89
:10340000B3F90800198893F910308DF84C3012ACDC
:103410006080218094E803000DF5AC7E531C589029
:103420008DF86411FE204FF09A0C0521AB74012336
:103430008EF804208EF802008EF805308EF80630E3
:103440008EF807C08EF803100DF25B130DF25F10BB
:103450004FF6FF7201E013F8011F514081EA01119C
:10346000C9B24FEAC10C8CEA012C8CEA12229842B4
:1034700082EA1112EFD1AEF80020944658A90DF25D
:10348000651011F8013B83EA0C0383EA0313DBB2F6
:10349000DA0082EA032282EA2C2282EA13131BB2A8
:1034A0001FFA83FC8142AEF800C0EAD183F0060324
:1034B00083EA0313DBB24FEAC30888EA032888EAE9
:1034C0001C2888EA13180FFA88F81FFA88F34FEAC5
:1034D00013295FFA88F8AEF800308EF80E900B22B0
:1034E0000DF5AD718EF80D80684600F069FD6846F7
:1034F0000D218DF80C908DF80B80FEF753FD164BC7
:1035000093F80090B9F1010F7FF4FFAE3046FFF75A
:103510001BFB0DF1200888E8810098E80300AB7CD4
:103520000DF1500E8EE803005E1CFE22982008214B
:103530002371AE74A27084F8059084F80690E0714F
:10354000E1700DF14B030DF14F054FF6FF7209E0ED
:10355000541AFF1F9C08FF1F8409FF1F3C16FF1F02
:1035600013F8011F514081EA0111C9B2C80080EA75
:10357000012080EA1222AB4282EA1112F0D12280AD
:10358000104616A91EF8013B434083EA0313DBB241
:10359000DA0082EA032282EA202282EA13131BB2B3
:1035A00098B28E452080EDD183F025012AE1C34CED
:1035B00094F8391094F838300020994203F1010250
:1035C00007D0FAD9D3B299424FF0010003F10102BA
:1035D000F7D1002840F05681B84E09223046082124
:1035E000FFF79AFC94F8383094F83900834280F061
:1035F0001C81F218B24992F918705A1CD2B23F02DB
:1036000090420F8086F8382040F220813244B3EE99
:10361000047A127E174307EE907AF8EEE76A9A1C56
:10362000C6EE877AD2B290420F8086F83820C1ED7C
:10363000017A40F24181DA1CD2B2904240F23881E4
:103640003244043392F91870DAB23F0286F8382017
:1036500090420F819A4B40F21881A618531CDBB29E
:10366000327E84F838303A4307EE902A9FED957AFF
:103670000A81F8EEE76A9842C6EE877A904FC1ED6C
:10368000037A40F2DF805A1CD2B2904240F2D780D7
:10369000A6189A1C367EDFF824E2D2B23602904297
:1036A0003E8284F8382040F2FF8072440333DBB25C
:1036B000127E8EF83830984242EA060288BF013303
:1036C0000A8288BF84F83830A5E50DF5AC7E97F8FE
:1036D00039C097F83830724657AF4FF00009E118FB
:1036E000634534BF097EFF2102F8011B03F101008D
:1036F0003CBFC3B24FF001099742F0D1B9F1000FBE
:1037000040F0B4809EF801309EF800709EF80220D0
:103710001B0243EA074343EA0207AF60E9E50DF500
:10372000AC7E96F8397096F83830724657AE4FF046
:10373000000CE118BB4234BF097EFF2102F8011BD7
:1037400003F101003CBFC3B24FF0010C9642F0D12F
:10375000BCF1000F40F08D809EF801309EF80060B3
:103760009EF802201B0243EA064343EA0206B6F52E
:10377000000FA8BF06F17F466E6083E50DF12008BB
:1037800088E8C00098E80300AB7C0DF1500E8EE88D
:1037900003005E1CFE229720237108210123AE74D2
:1037A000A2706371A371E071E1700DF14B030DF133
:1037B0004F054FF6FF7201E013F8011F514081EAF7
:1037C0000111C9B2C80080EA012080EA1222AB428E
:1037D00082EA1112F0D12280104616A91EF8013B90
:1037E000434083EA0313DBB2DA0082EA032282EA6F
:1037F000202282EA13131BB298B28E452080EDD1AD
:1038000083F06B0181EA0111C9B2CA0082EA012288
:1038100082EA102282EA111109B28EB2370A0E250D
:10382000217467742A461024D6E52549264A4A6041
:103830004FF6FF760E806FF0FF07FF2213E784F844
:10384000382013464FF47F46FF2234E747F0FF0746
:1038500007EE907AF8EEE76AB3EE047AC6EE877A5E
:103860000F806FF0FF07C1ED017AF1E684F8383080
:1038700048E784F838306FE784F83810F8E484F8C3
:1038800038102CE584F83810A6E647F0FF0207EE62
:10389000902A9FED0C7A1A81F8EEE76A4FF47F4682
:1038A000C6EE877AC3ED037A46F0FF020A82B2E4DD
:1038B00086F838201346BEE71346BCE70809FF1F09
:1038C0003C16FF1F00004843CDCC4CBD08B5104C42
:1038D00008E0236859050DD423681A050FD423681E
:1038E000DB0411D423685803F3D5FDF72FFD2368BB
:1038F0005905F1D5FDF7BEFC23681A05EFD5FDF794
:103900004DFC2368DB04EDD5FDF7FAFBEAE700BFC9
:103910003480044008B5FFF7D9FF00BFBF4BC04952
:10392000C048C14ADFF870C3F0B54FF000641C60B6
:103930004FF080541C604FF000541C604FF08044E6
:103940001C604FF000441C60DFF850E3B74EB84DE8
:10395000B84F00240C6028234EF6FF71CCF80010FD
:10396000CEF8003003600EF5012E136033602B603B
:1039700006F500263B6005F50025836207F5002764
:10398000936200F5012002F5012206F6E87605F6BD
:10399000E87507F57F6710320EF1100E20303360A6
:1039A0002B60CEF800303B6013600360A248BB611F
:1039B000936109220260A7F5002700F58050203F9F
:1039C00008303C600160BB60C36047F8042C00F520
:1039D000FD2007F5FE27043700F2FC700460396013
:1039E0008360FB6040F8042C083000F6FC70C7F8D8
:1039F000FC4F0160A0F5E120A0F2DC7033602B6089
:103A0000C7F8F82F02688D498D4E8E4D42F4007232
:103A100002600A680CF5102C0EF57F4E07F588370A
:103A200000F500200CF6FC7C0EF1EC0E043700F6DD
:103A3000E87042F000720A6047F6FF72CCF800406E
:103A400001F52F31CEF800203B600360082333607E
:103A500001F2FD3160232B707B4AE123ACF50D2C84
:103A60000B70ACF6F87CAEF5604E3923A0F56040E3
:103A7000A6F55F4601F58E21A7F50D27A5F563355F
:103A80001360233113220838A7F6EC77E03EA5F542
:103A90007775CCF80020CEF800308423026085B022
:103AA0003C60142034602B600B60FEF7B7F872B6F0
:103AB000664A1378802B00F0A880654A654B6649FA
:103AC0001160702280211A701A46197013781B0633
:103AD000FCD55E49614B0A781B68012A00F0E4803E
:103AE00062B65F4A5F4F93429CBF0A225343A7FBD3
:103AF0000312D20802EB8201A3EB410330338DF8AD
:103B000004301346002A00F0E08001AE304634460F
:103B10000021A7FB0352D20802EB8205A3EB450369
:103B2000303304F8013F01311346002AF1D104ACCF
:103B30000C44731804F80B2C1C78057800F8014B22
:103B400001328C1A944203F80159F5DC46480023EF
:103B5000014616F8012B002A00F0B38001330A2B2E
:103B600021F8022FF5D116220023404902701A468F
:103B700001EBC30041F833200133142B42604FF0B6
:103B800000043A48F4D13A493A4A0B68DFF810C1C8
:103B9000394F3A4E3A4DDFF80CE143F480230B6085
:103BA000136843F04073136003238CF8003001F571
:103BB0002831A0233B707C31C0F3072302F5C922D2
:103BC00033701032C0F30743000E0B702870FF23D0
:103BD0002C488EF800302C4E0CF8BC3C0F4D137066
:103BE0000123F83207F8AC3C81F85040702703708D
:103BF0004FF4001410214FF48C7037702C6011704A
:103C000005B0BDE8F040FEF709B82049204B214837
:103C100008601C701378802BFCD04EE704E100E0B4
:103C200004800340148003401C8003402480034030
:103C30002C80034034800340008003400480044013
:103C400000900C400040074008B0034003E00740EC
:103C50000400024000000240000007410C00024046
:103C60007F969800CDCCCCCCB407FF1F0000FF1F7F
:103C70003480044000D80040402107409C20074089
:103C8000B42007408420074035E400E0448004402D
:103C900001E0074000002822088003400C80034018
:103CA000442107408020074002F1804202F5FC22B7
:103CB000602010700A78802AFCD1064A06491160FB
:103CC0000EE75A1C5200D2B24EE78DF8052001AE25
:103CD0003CE700BF448004400000060210B51A24EF
:103CE000FEF7A6F8631E00B910BD13F0FF04FBD069
:103CF000FEF714F9C0B2FCF7B1FCF1E7FEE700BF34
:103D0000FEE700BF0A4908B50B6840B16A4618448F
:103D1000A2F50052904204D20860184608BD184629
:103D200008BD00F0A9F80C2303604FF0FF3008BD78
:103D30008809FF1F70B53D4CE37A0546002B26D05D
:103D400072B6E37ADE071A4606D53949E268086892
:103D50000240E2610A601A46980706D53549236990
:103D60000868E27A034023620B60510706D53249A6
:103D700063690868E27A034063620B60130705D544
:103D80002E4AA36911680B40A362136062B62368D0
:103D90002B4AD968914206D02A4E2B482B491E60E7
:103DA000DA601861196000210A20FDF711FF23680D
:103DB0004FF000410322D9625A63DA6A002AFCDA22
:103DC00045F080554FF00042996BDA625D63DA6A24
:103DD000002AFCDA4FF000410022986BD9625A6346
:103DE000DA6A002AFCDA01210A209D6BFDF7F0FE59
:103DF000E37A0E49EDB21A46B3B1DE0703D5144A91
:103E0000C96911601A46980703D5124B216AE27AF4
:103E10001960510703D5104B616AE27A19601307E4
:103E200002D50E4BA26A1A60284670BD5408FF1FC7
:103E300080E100E084E100E088E100E08CE100E066
:103E40000760013801403F000760017800003F80B3
:103E500000E100E004E100E008E100E00CE100E046
:103E60000B460146184600F001B800BF13460A464B
:103E70000146022000F02EB8014B1868704700BFC1
:103E8000B80DFF1F70B50F4E0F4D761BB61018BF43
:103E9000002405D0013455F8043B9847A642F9D1D7
:103EA0000A4E0B4D761B00F07BFCB61018BF0024A9
:103EB00006D0013455F8043B9847A642F9D170BDAD
:103EC00070BD00BFAC470000AC470000B847000021
:103ED000AC4700002DE9F047254C2568D5F848414E
:103EE0000646884692469946C4B360681F2817DC88
:103EF000431C76B104EB80050122C5F888A0D4F8F4
:103F0000881182401143022EC4F88811C5F8089127
:103F10001ED00230636044F820800020BDE8F087A6
:103F2000144B03B34FF4C870AFF300800446D0B114
:103F3000D5F84831002780E88800C5F84841384660
:103F40000123C4F88871C4F88C71002EE1D0D1E748
:103F5000D4F88C110A43C4F88C21DAE705F5A6746D
:103F6000C5F84841C1E74FF0FF30BDE8F08700BF1A
:103F70009C47000000000000024B13B1024800F013
:103F800005B8704700000000993F0000002301467B
:103F90001A461846FFF79EBF38B5074D074C2C1B35
:103FA000A41005D0013C55F8043D9847002CF9D1E8
:103FB000BDE8384000F000BC000000000000000038
:103FC000844641EA000313F003036DD1403A41D324
:103FD00051F8043B40F8043B51F8043B40F8043BE3
:103FE00051F8043B40F8043B51F8043B40F8043BD3
:103FF00051F8043B40F8043B51F8043B40F8043BC3
:1040000051F8043B40F8043B51F8043B40F8043BB2
:1040100051F8043B40F8043B51F8043B40F8043BA2
:1040200051F8043B40F8043B51F8043B40F8043B92
:1040300051F8043B40F8043B51F8043B40F8043B82
:1040400051F8043B40F8043B51F8043B40F8043B72
:10405000403ABDD2303211D351F8043B40F8043B12
:1040600051F8043B40F8043B51F8043B40F8043B52
:1040700051F8043B40F8043B103AEDD20C3205D322
:1040800051F8043B40F8043B043AF9D2043208D01A
:10409000D2071CBF11F8013B00F8013B01D30B888C
:1040A00003806046704700BF082A13D38B078DD06A
:1040B00010F003038AD0C3F10403D21ADB071CBF3C
:1040C00011F8013B00F8013B80D331F8023B20F8A6
:1040D000023B7BE7043AD9D3013A11F8013B00F8DF
:1040E000013BF9D20B7803704B7843708B78837067
:1040F00060467047FFFFFFFFFFFFFFFFFFFFFFFF6F
:1041000090F800F06DE9024520F007016FF0000C17
:1041100010F0070491F820F040F049804FF00004BF
:104120006FF00700D1E9002391F840F000F108009A
:1041300082FA4CF2A4FA8CF283FA4CF3A2FA8CF3D2
:104140004BBBD1E9022382FA4CF200F10800A4FA39
:104150008CF283FA4CF3A2FA8CF3E3B9D1E904238D
:1041600082FA4CF200F10800A4FA8CF283FA4CF3C4
:10417000A2FA8CF37BB9D1E9062301F1200182FA7E
:104180004CF200F10800A4FA8CF283FA4CF3A2FA84
:104190008CF3002BC6D0002A04BF04301A4612BA92
:1041A000B2FA82F2FDE8024500EBD2007047D1E995
:1041B000002304F00305C4F100004FEAC50514F024
:1041C000040F91F840F00CFA05F562EA05021CBFF5
:1041D00063EA050362464FF00004A9E700ADF90069
:1041E00000000000000000000000000000000000CF
:1041F00000000000000000000000000000000000BF
:104200000000000000000000000000000000004A64
:10421000000000000000000000000000000000009E
:10422000000000000000000000000000000000008E
:10423000000000000000000000000000000000007E
:104240000046C876CE00000000000000000000001C
:10425000000000000000000000000000000000005E
:10426000000000000000000000000000000000004E
:104270000000006B25D706000000000000000000D1
:1042800000000000000000730000000000000000BB
:10429000000000000000000000000000000000001E
:1042A000000000000000000000000000000000000E
:1042B00000000000000000000000000000000000FE
:1042C00000000000000000000000000000000000EE
:1042D00000000000000000000000000028800440F2
:1042E0004000000004FFFFFFFF0500000000031A6C
:1042F000FFFFFF05050000004A000000000100006C
:10430000A007FF1F12000000000200000008FF1FAE
:104310004300000000030000FC07FF1F0000000036
:1043200001030904E407FF1F000000000203090461
:10433000CC07FF1F0000000003030904B407FF1FA0
:10434000000000000000000000000000000000006D
:10435000001519153C80044000100000041A0000EC
:10436000FF7F00000F0E0000950400000C0827FFDF
:104370000002000000020000000200000000000037
:104380000B071CFF000200000002000000020000FA
:10439000000000000D0E1B000002000000020000E3
:1043A000000200000A020906141715160F1A2D0044
:1043B00000020000000200000002000000020000F5
:1043C00000020000000200000002000000020000E5
:1043D00000020000000200000003000001010202D0
:1043E0000404080810012000020003000400050076
:1043F000060008000A000C0010001400180020003D
:1044000028003800400060008000C00000018001EA
:104410000002800200030000000000800000018014
:1044200000000000000002800000010001100000F8
:104430000000020001100100032000000100020042
:1044400003200100043000000320020003200300C9
:104450000540000005400100065000000650010024
:10446000076000000760010008700000076002009C
:10447000087001005350492E626567696E28290053
:104480005350492E656E645472616E736163746932
:104490006F6E282900000000626567696E547261C2
:1044A0006E730000446F6E65206C6F61645F636FB4
:1044B0006566667328290000537461747573000083
:1044C00057616974696E67204E564D20636F70792D
:1044D0002E2E2E003131313031303030303031300D
:1044E00030313131303131313031313130303131C1
:1044F0003030303000FFFFFF0D0A00004008FE435F
:1045000040A004404408FE4344A004400018FE4379
:1045100000C004403000FE43309004403400FE43AD
:10452000349004401C18FE431CC004401018FE4385
:1045300010C004400818FE4308C004400C18FE4395
:104540000CC004400C10FE430CB004401010FE439D
:1045500010B004401810FE4318B004401C10FE4375
:104560001CB004401410FE4314B004400418FE4371
:1045700004C004400010FE4300B004400008FE43A5
:1045800000A004400408FE4304A004400C08FE43BD
:104590000CA004400808FE4308A004401418FE4381
:1045A00014C004401818FE4318C004400410FE4311
:1045B00004B004400810FE4308B004406820FE43E5
:1045C00068D004401400FE43149004403800FE43B9
:1045D000389004403C00FE433C9004404000FE43C1
:1045E000409004404808FE4348A004404C08FE4365
:1045F0004CA004402808FE4328A004402C08FE4399
:104600002CA004406020FE4360D004406420FE43A0
:1046100064D004402010FE4320B004402410FE4328
:1046200024B004402810FE4328B004402C10FE4360
:104630002CB004404400FE43449004407000FE430C
:10464000709004407400FE43749004406800FE4380
:10465000689004405008FE4350A004405808FE43B0
:1046600058A004405C08FE435CA004405408FE438C
:1046700054A004402018FE4320C004402418FE43E8
:1046800024C004401008FE4310A004401408FE4358
:1046900014A004403818FE4338C004403418FE43C8
:1046A00034C004403018FE4330C004403C18FE4380
:1046B0003CC004402C18FE432CC004402820FE437C
:1046C00028D004402C20FE432CD004400020FE4380
:1046D00000D004400420FE4304D004400820FE43E0
:1046E00008D004400C20FE430CD004401020FE43B0
:1046F00010D004401420FE4314D0044000000000F9
:104700000000000021260000F505000091250000B2
:10471000E12500008D2500001D2600002D2C000045
:10472000012C0000348004404000000012112208D7
:10473000300202050702131021072F0202050702AB
:10474000180000003480044080000000263AFFFF7B
:10475000FF0206000000253BFFFFFF0206000000ED
:104760001900000000000000000000006D040000BF
:10477000FD050000F1050000A9050000E5050000A9
:10478000C5050000AD050000436F656666732043F4
:104790006F6E7374727563746F7200009009FF1FFF
:1047A000F8B500BFF8BC08BC9E467047793F0000D2
:0847B000350400000131000096
:0447B800F8B500BF91
:0847BC00A4F6FF7F01000000DC
:1047C400000000006C47000000000000E803000047
:1047D4000000000000600E40DC4200000000000009
:1047E40000000000000000000000000000000000C5
:1047F40000000000000000000000000000000000B5
:1048040000000000000000000000000000000000A4
:104814000000000000000000000000000000000094
:104824000000000000000000000000000000000084
:104834001201100102000040C01683047702010235
:10484400030100000C030000000000000000000051
:1048540000000000000000000000000016035500E6
:10486400530042002000530065007200690061009B
:104874006C00000018035400650065006E007300AE
:1048840079006400750069006E006F000403090478
:1048940009024300020100C03209040000010202BF
:1048A400010005240010010524010101042402066D
:1048B40005240600010705820310004009040100D5
:1048C400020A0000000705030240000007058402F5
:1048D40040000000BD1C0000BD1C0000BD1C000009
:1048E400BD1C000000C00240544300000000000052
:1048F40000000000000000000000000000000000B4
:1049040000000000000000000000000000000000A3
:104914000000000000000000000000000000000093
:1049240000000000FFFFFFFF010000006C470000D3
:1049340000000000E80300000000000000600640E2
:1049440024470000000000000000000000000000F8
:104954000000000000000000000000000000000053
:104964000000000000000000000000000000000043
:104974000000000000000000000000000000000033
:104984000000000000000000000000000000000023
:1049940000000000000000006C4700000000000060
:1049A400E8030000000000000070064044470000D7
:1049B40000000000000000000000000000000000F3
:1049C40000000000000000000000000000000000E3
:1049D40000000000000000000000000000000000D3
:1049E40000000000000000000000000000000000C3
:1049F40000000000000000000000000000000000B3
:104A0400000000000447000000000000E80300006C
:104A14000000000003000000901AFF1F00000000C7
:104A2400000000007C0CFF1FE40CFF1F4C0DFF1F57
:104A34000000000000000000000000000000000072
:104A44000000000000000000000000000000000062
:104A54000000000000000000000000000000000052
:104A64000000000000000000000000000000000042
:104A74000000000000000000000000000000000032
:104A84000000000000000000000000000000000022
:104A94000000000000000000000000000000000012
:104AA4000000000000000000000000000000000002
:104AB40000000000000000000000000000000000F2
:104AC40000000000000000000100000000000000E1
:104AD4000E33CDAB34126DE6ECDE05000B000000A6
:104AE40000000000000000000000000000000000C2
:104AF40000000000000000000000000000000000B2
:104B040000000000000000000000000000000000A1
:104B14000000000000000000000000000000000091
:0C4E440000000000000000009009FF1FAB
:00000001FF
